:10000000C8C20000F7C20000F5C20000F3C2000041
:10001000F1C20000EFC20000EDC20000EBC2000020
:10002000E9C20000E7C20000E5C20000E3C2000030
:10003000E1C20000DFC20000DDC20000DBC2000040
:10004000D9C20000D7C20000D5C20000D3C2000050
:10005000D1C20000CFC20000CDC200000C943B1DF5
:10006000C9C200000C94F60F0C94CD0FC3C200005F
:10007000C1C20000BFC20000BDC20000BBC2000080
:10008000B9C20000B7C20000B5C20000B3C2000090
:10009000B1C20000AFC20000ADC200000C94C31E8C
:1000A000A9C20000A7C20000A5C20000A3C20000B0
:1000B000A1C200009FC200009DC200009BC20000C0
:1000C00099C2000097C2000095C2000093C20000D0
:1000D00091C200008FC200008DC200008BC20000E0
:1000E00089C200004E1C511C401C441C481C881C2A
:1000F000551C591C5F1C631C671C6D1C711C751CF6
:10010000881C7B1C7F1C831C00407A10F35A00A0C3
:10011000724E18090010A5D4E80000E876481700D0
:1001200000E40B54020000CA9A3B000000E1F50510
:10013000000080969800000040420F000000A0865A
:1001400001000000102700000000E803000000008C
:100150006400000000000A00000000000100000030
:1001600000002C76D888DC674F0823DFC1DFAE594A
:10017000E1B1B796E5E3E453C63AE651997696E8DD
:10018000E6C28426EB898C9B62ED407C6FFCEFBC61
:100190009C9F40F2BAA56FA5F490055A2AF75C938C
:1001A0006B6CF9676DC11BFCE0E40D47FEF520E6C2
:1001B000B500D0ED902E0300943577050080841EA5
:1001C000080000204E0A000000C80C333333330F00
:1001D000986E12831141EF8D2114893BE65516CF9D
:1001E000FEE6DB18D1844B381BF77C1D901DA4BBA9
:1001F000E424203284725E228100C9F124ECA1E55E
:100200003D27000020002300260029002C002F009D
:1002100032000001000003010601090172756E2D14
:100220006272696467650A000A000A0020202020C3
:1002300020202020202020002020202020202020DE
:100240002020200020202020465245534843415280
:10025000474F542020200020202020202020202034
:100260002020202020202020202000202020425953
:10027000204B494552414E2032303137202000205A
:1002800020202053595354454D2056312E302020E4
:1002900020200020475245454E484F5553452043A6
:1002A0004F4E54524F4C0020202020202020202050
:1002B000202020202020202020200020416C61725E
:1002C0006D206465616374697661746564210046BC
:1002D000656E6365200020416C61726D20616374FE
:1002E000697661746564210046656E636520004728
:1002F0005245454E484F55534531200030003A0095
:1003000030003A003000562000200056205A4E455A
:1003100034423D002000205A4E4534413D005620D5
:1003200000200056205A4E4533423D002000205AFE
:100330004E4533413D00562000200056205A4E4580
:1003400032423D002000205A4E4532413D005620A9
:1003500000200056205A4E4531423D002000205AD0
:100360004E4531413D004320004F200053332000D3
:100370004320004F2000533220004320004F200034
:10038000533120004320004F2000533020004855B7
:100390004D49444954593D0054454D503D2020207D
:1003A000200054454D503D45525220202020202011
:1003B0002020202020200000002100240027002AE7
:1003C000002D003000330001010000040107010A84
:1003D0000100002200250028002B002E00310034EF
:1003E0000002010000050108010B0100000A0B02D8
:1003F000090C0D0E080703040100000000000000B6
:1004000000000000000000000000000000000000EC
:1004100000000000000000121110000000000000A9
:1004200000000000000000000000000000000000CC
:100430000005050505070508080808020202020A6A
:100440000A08080404040401010101010101010377
:1004500003030303030303040707070C0C0C0C0C32
:100460000C0C0C0202020206060606060606060B25
:100470000B0B0B0B0B0B0B0102102020080810209C
:100480004010204080020102010804020101020420
:1004900008102040808040201008040201800402DF
:1004A0000180402010080402010804020101020436
:1004B0000810204080010204081020408041766529
:1004C000726167652068756D696469747920697304
:1004D0002000417665726167652074656D70657294
:1004E00061747572652069732000252E003474686C
:1004F0002068756D692069732000432E003474688C
:100500002074656D702069732000252E003372649D
:100510002068756D692069732000432E0033726472
:100520002074656D702069732000252E00326E6482
:100530002068756D692069732000432E00326E6457
:100540002074656D702069732000252E003173744E
:100550002068756D692069732000432E0031737423
:100560002074656D702069732000492077696C6C78
:100570002067657420646174612066726F6D204429
:10058000485432322073656E736F72732100EF2A04
:10059000722411241FBECFEFD1E2DEBFCDBF00E039
:1005A0000CBF15E0A0E0B2E0E4EDFEE600E00BBF1A
:1005B00002C007900D92AE32B107D9F728E0AEE243
:1005C000B5E001C01D92A335B207E1F712E0C8EC17
:1005D000D2E000E006C021970109802FFE010E94B1
:1005E0006332C73CD10780E00807A9F70E94942432
:1005F0000C94593705CD089580E090E008951F933D
:10060000CF93DF93182F81E0809333061093550624
:10061000109234061092560660E08FE497E00E9434
:10062000F11B0E94701162E0812F0E94F91110925B
:10063000EB058093EA058FE497E00E94A61B182F34
:100640008FE497E00E94A61BD12F20E0C22F9E01CD
:10065000282BC901DF91CF911F9108951092370582
:10066000109238051092390510923A0584E0809373
:1006700053050E946A21613177428105910550F14D
:1006800020E030E04CE852E460913205709133058F
:1006900080913405909135050E94F22F87FF03C0A9
:1006A00082E198E015C020E030E040ED51E4609137
:1006B0002E0570912F0580913005909131050E9493
:1006C0005B3218161CF48AEF97E002C088E198E0CC
:1006D0000C947C21089584E08093530520E030E061
:1006E00040ED51E460912E0570912F058091300509
:1006F000909131050E94F22F1816A4F020E030E00E
:100700004CE852E4609132057091330580913405D4
:10071000909135050E945B3287FD04C082EE97E020
:100720000C947C210E946A216938734181059105EE
:10073000A8F70895CF92DF92EF92FF9283E0809323
:10074000530520E030E040ED51E460912E057091BA
:100750002F0580913005909131050E94F22F1816D7
:100760009CF020E030E04CE852E46091320570915A
:10077000330580913405909135050E945B3287FDE9
:1007800003C088E198E028C00E946A21693873415B
:100790008105910538F1C0903205D0903305E09085
:1007A0003405F090350520E030E04CE852E4C70114
:1007B000B6010E94F22F87FF03C080E098E00CC0D2
:1007C00020E030E040ED51E4C701B6010E945B3209
:1007D000181644F488EE97E0FF90EF90DF90CF90EA
:1007E0000C947C21FF90EF90DF90CF900895CF92F2
:1007F000DF92EF92FF9282E08093530520E030E099
:1008000040ED51E460912E0570912F0580913005E7
:10081000909131050E94F22F18169CF020E030E0F4
:100820004CE852E4609132057091330580913405B3
:10083000909135050E945B3287FD03C088E198E006
:1008400028C00E946A21693873418105910538F1F9
:10085000C0903205D0903305E0903405F090350516
:1008600020E030E04CE852E4C701B6010E94F22FCC
:1008700087FF03C086E098E00CC020E030E040ED48
:1008800051E4C701B6010E945B32181644F48EEEA3
:1008900097E0FF90EF90DF90CF900C947C21FF9039
:1008A000EF90DF90CF900895CF92DF92EF92FF927A
:1008B00081E08093530520E030E040ED51E4609109
:1008C0002E0570912F0580913005909131050E9481
:1008D000F22F18169CF020E030E04CE852E46091D2
:1008E00032057091330580913405909135050E9451
:1008F0005B3287FD03C088E198E028C00E946A212E
:10090000693873418105910538F1C0903205D09066
:100910003305E0903405F090350520E030E04CE8F8
:1009200052E4C701B6010E94F22F87FF03C08CE09A
:1009300098E00CC020E030E040ED51E4C701B60182
:100940000E945B32181644F484EF97E0FF90EF901A
:10095000DF90CF900C947C21FF90EF90DF90CF90B0
:10096000089584E08093530520E030E040ED51E4A9
:1009700060912E0570912F05809130059091310581
:100980000E94F22F1816A4F020E030E04CE852E468
:100990006091320570913305809134059091350551
:1009A0000E945B3287FD04C082EE97E00C947C21AC
:1009B0000E946A216938734181059105A8F708955D
:1009C000CF92DF92EF92FF9283E08093530520E075
:1009D00030E040ED51E460912E0570912F0580913B
:1009E0003005909131050E94F22F18169CF020E0FE
:1009F00030E04CE852E4609132057091330580910B
:100A00003405909135050E945B3287FD03C088E173
:100A100098E028C00E946A216938734181059105D8
:100A200038F1C0903205D0903305E0903405F09055
:100A3000350520E030E04CE852E4C701B6010E94E1
:100A4000F22F87FF03C080E098E00CC020E030E088
:100A500040ED51E4C701B6010E945B32181644F420
:100A600088EE97E0FF90EF90DF90CF900C947C2180
:100A7000FF90EF90DF90CF900895CF92DF92EF92AA
:100A8000FF9282E08093530520E030E040ED51E496
:100A900060912E0570912F05809130059091310560
:100AA0000E94F22F18169CF020E030E04CE852E44F
:100AB0006091320570913305809134059091350530
:100AC0000E945B3287FD03C088E198E028C00E9445
:100AD0006A21693873418105910538F1C09032056A
:100AE000D0903305E0903405F090350520E030E0FB
:100AF0004CE852E4C701B6010E94F22F87FF03C001
:100B000086E098E00CC020E030E040ED51E4C70101
:100B1000B6010E945B32181644F48EEE97E0FF9007
:100B2000EF90DF90CF900C947C21FF90EF90DF90BE
:100B3000CF900895CF92DF92EF92FF9281E0809361
:100B4000530520E030E040ED51E460912E057091B6
:100B50002F0580913005909131050E94F22F1816D3
:100B60009CF020E030E04CE852E460913205709156
:100B7000330580913405909135050E945B3287FDE5
:100B800003C088E198E028C00E946A216938734157
:100B90008105910538F1C0903205D0903305E09081
:100BA0003405F090350520E030E04CE852E4C70110
:100BB000B6010E94F22F87FF03C08CE098E00CC0C2
:100BC00020E030E040ED51E4C701B6010E945B3205
:100BD000181644F484EF97E0FF90EF90DF90CF90E9
:100BE0000C947C21FF90EF90DF90CF90089520E04F
:100BF00030E04CE852E46091320570913305809109
:100C00003405909135050E94F22F87FF1FC063EDD8
:100C100072E087EA96E00E94E014809153058230EA
:100C200079F018F4813049F00895833061F0843010
:100C300009F053C082E198E036C08CE098E033C000
:100C400086E098E030C080E098E02DC020E030E001
:100C500040ED51E460912E0570912F058091300593
:100C6000909131050E945B321816FCF46FEE72E031
:100C700087EA96E00E94E01480915305823071F07B
:100C800018F4813041F00895833059F0843029F50B
:100C90008AEF97E008C084EF97E005C08EEE97E0FA
:100CA00002C088EE97E00C947C210E946A21613199
:100CB00077428105910548F06BE073E087EA96E0A2
:100CC0000E94E01484E0809353051092370510923F
:100CD00038051092390510923A0508950F931F9325
:100CE000CF93DF93EC010E9400131D82898582302F
:100CF00010F098E09D839A85992329F0813019F4AA
:100D00008D8184608D8362E370E080E090E00E94DA
:100D1000F71C6B85CE010E94072468EE73E080E02B
:100D200090E00E94F71C60E3CE010E941A240BE4BD
:100D300016E4C8010197F1F760E3CE010E941A247E
:100D4000C8010197F1F760E3CE010E941A2483E500
:100D500092E00197F1F760E2CE010E941A246D81C2
:100D6000606240E0CE010E94302484E08E8340E047
:100D70006CE0CE010E943024CE010E94542482E017
:100D80008F8340E066E0CE010E94302440E062E0C4
:100D9000CE010E9430248BE39FE10197F1F7DF91B0
:100DA000CF911F910F910895AF92BF92CF92DF9292
:100DB000EF92FF920F931F93CF93DF93CDB7DEB7E0
:100DC000CC53D1400FB6F894DEBF0FBECDBF5C014F
:100DD0006BE173E087EA96E00E94E014B50187EAD0
:100DE00096E00E94031662E373E087EA96E00E94B1
:100DF000B80FF50181818F9380818F9380E092E01D
:100E00009F938F9385E292E09F938F9300E312E08C
:100E10001F930F9382E492E09F938F9385E393E077
:100E20009F938F93CE0101967C019F938F930E9495
:100E300090341F930F938DE492E09F938F938E01D4
:100E4000075F1E4F1F930F930E949034C954DF4FCA
:100E500019821882C75BD04088EE93E0A0E0B0E032
:100E6000C754DF4F88839983AA83BB83C95BD04073
:100E700085E692E0CB54DF4F99838883C55BD040F1
:100E800084E497E0CF53DF4F99838883C15CD040DF
:100E9000CA53DF4F1882C65CD040C953DF4F188257
:100EA000C75CD040C853DF4F1882C85CD04067E8A9
:100EB00073E0CE018F5C9E4F0E948414CE018B5450
:100EC0009F4F0E94391E86E090E00E946B326C01B9
:100ED000BE016F5C7E4F0E947C14CC53DF4FD982E1
:100EE000C882C45CD040CE018F5C9E4F0E94F1133B
:100EF0006CE873E0CE018F5C9E4F0E948414BE01AB
:100F00006F5C7E4FCE018B549F4F0E94851DCE019A
:100F10008F5C9E4F0E94F11364E373E0CE018F5CFF
:100F20009E4F0E948414BE016F5C7E4FCE018B5495
:100F30009F4F0E94851DCE018F5C9E4F0E94F11332
:100F40006FE873E0CE018F5C9E4F0E948414BE0157
:100F50006F5C7E4FCE018B549F4F0E94851DCE014A
:100F60008F5C9E4F0E94F11362E973E0CE018F5CAB
:100F70009E4F0E948414BE016F5C7E4FCE018B5445
:100F80009F4F0E94851DCE018F5C9E4F0E94F113E2
:100F900065E973E0CE018F5C9E4F0E948414BE0110
:100FA0006F5C7E4FCE018B549F4F0E94851DCE01FA
:100FB0008F5C9E4F0E94F11369E973E0CE018F5C54
:100FC0009E4F0E948414BE016F5C7E4FCE018B54F5
:100FD0009F4F0E94851DCE018F5C9E4F0E94F11392
:100FE000B801CE018F5C9E4F0E948414BE016F5CDD
:100FF0007E4FCE018B549F4F0E94851DCE018F5C8A
:101000009E4F0E94F11369E973E0CE018F5C9E4F01
:101010000E948414BE016F5C7E4FCE018B549F4FA3
:101020000E94851DCE018F5C9E4F0E94F1136CE9DA
:1010300073E0CE018F5C9E4F0E948414BE016F5CF2
:101040007E4FCE018B549F4F0E94851DCE018F5C39
:101050009E4F0E94F11369E973E0CE018F5C9E4FB1
:101060000E948414BE016F5C7E4FCE018B549F4F53
:101070000E94851DCE018F5C9E4F0E94F1136DEA88
:1010800073E0CE018F5C9E4F0E948414BE016F5CA2
:101090007E4FCE018B549F4F0E94851DCE018F5CE9
:1010A0009E4F0E94F113B701CE018F5C9E4F0E94AC
:1010B0008414BE016F5C7E4FCE018B549F4F0E9403
:1010C000851DCE018F5C9E4F0E94F11382E5C95CA5
:1010D000DE4F8883C753D140CC53DF4FE881F9817D
:1010E000C45CD040048115812081318142E0C42E4E
:1010F000D12CFE01EF5CFE4F7F0141E050E0BE01CC
:10110000695C7E4FCF53DF4F88819981C15CD040AD
:101110000E94F41FCE5CDE4F8881C253D140CD5374
:10112000DF4F8883C35CD040CC53DF4F08811981E7
:10113000C45CD0400FB6F894DEBF0FBECDBF011522
:10114000110531F0C8010E94F113C8010E9400335B
:10115000CC53DF4F19821882C45CD040CF5CDE4F85
:101160008881C153D140811106C081E0CA53DF4F4D
:101170008883C65CD04092E7F92ECF5CDE4FF882C0
:10118000C153D140CD53DF4F8881C35CD040CE5C8A
:10119000DE4F8883C253D14001E010E09E01295CFC
:1011A0003E4F42E050E0BE016F5C7E4FCF53DF4FB9
:1011B00088819981C15CD0400E94021EC95CDE4FCB
:1011C0008881C753D140813039F464E670E080E013
:1011D00090E00E94F71CD1CF87E5C95CDE4F888381
:1011E000C753D140CD53DF4F8881C35CD040C85C2A
:1011F000DE4F8883C853D14002E010E09E012F5C8F
:101200003E4F42E050E0BE01695C7E4FCF53DF4F5E
:1012100088819981C15CD0400E94021ECF5CDE4F64
:101220004881C153D14050E0542F4427CE5CDE4F5B
:101230008881C253D1407A01E80EF11CCE018B5453
:101240009F4F0E94631EC953DF4F8881C75CD04007
:10125000882309F45CC0B501CE01895C9E4F0E94D1
:101260007C14BE01695C7E4FCE018F5C9E4F0E9454
:101270007C14C090D507D090D60788E090E00E94FB
:101280006B328C0164E373E00E9484141093D607E0
:101290000093D5070115110561F48091CF07909156
:1012A000D007009721F06BEC73E00E94E0140E94DD
:1012B0005C24F80117821682BE016F5C7E4FC80164
:1012C0000E94DC132091D3073091D4078091D50779
:1012D0009091D607232B29F49093D4078093D307BA
:1012E00003C0F601978386838091D1079091D2073E
:1012F00001969093D2078093D107CE018F5C9E4FC9
:101300000E94F113CE01895C9E4F0E94F113CE0121
:101310008B549F4F0E94631EC953DF4F8881C75C67
:10132000D040882359F0CE018B549F4F0E94A31EBA
:10133000682F87EA96E00E94F214E9CF87EA96E0E8
:10134000BCD56CEF73E087EA96E012D6A70160E0A7
:1013500070E02AE087EA96E00E94981462E373E066
:1013600087EA96E005D685E692E0CB54DF4F998375
:101370008883C55BD040CE018B549F4F0E94391E9D
:10138000C45CDE4F0FB6F894DEBF0FBECDBFDF9159
:10139000CF911F910F91FF90EF90DF90CF90BF9072
:1013A000AF900895CF93DF93CDB7DEB72C970FB6EC
:1013B000F894DEBF0FBECDBF64E373E0CE010196AB
:1013C0000E9484146EE074E0CE0101960E948213A4
:1013D0006091360570E04AE0CE0107960E94251420
:1013E000BE01695F7F4FCE0101960E949013CE012E
:1013F00007960E94F113BE016F5F7F4FCE010796E3
:101400000E947C14CE010796CFDCCE0107960E9485
:10141000F113CE0101960E94F1132C960FB6F894A9
:10142000DEBF0FBECDBFDF91CF9108950F931F9305
:10143000CF93DF93CDB7DEB72C970FB6F894DEBF0E
:101440000FBECDBF64E373E0CE0101960E94841409
:1014500064E174E0CE0101960E9482130EE215E071
:10146000F801408151816281738121E0CE010796AC
:101470000E94F613BE01695F7F4FCE0101960E9464
:101480009013CE0107960E94F1136BE174E0CE0138
:1014900001960E948213F80144815581668177810B
:1014A00020E0CE0107960E94F613BE01695F7F4FD0
:1014B000CE0101960E949013CE0107960E94F1136F
:1014C00062E274E0CE0101960E9482134AE0F801C4
:1014D000618DCE0107960E945014BE01695F7F4F57
:1014E000CE0101960E949013CE0107960E94F1133F
:1014F00069E274E0CE0101960E9482134AE0F8018D
:10150000628DCE0107960E945014BE01695F7F4F25
:10151000CE0101960E949013CE0107960E94F1130E
:10152000BE016F5F7F4FCE0107960E947C14CE01F3
:1015300007963ADCCE0107960E94F11364E373E04C
:10154000CE0101960E94C71361E374E0CE010196BB
:101550000E9482134AE0F801638DCE0107960E9433
:101560005014BE01695F7F4FCE0101960E94901317
:10157000CE0107960E94F11368E374E0CE01019654
:101580000E9482134AE0F801648DCE0107960E9402
:101590005014BE01695F7F4FCE0101960E949013E7
:1015A000CE0107960E94F11360E474E0CE0101962B
:1015B0000E9482134AE0F801658DCE0107960E94D1
:1015C0005014BE01695F7F4FCE0101960E949013B7
:1015D000CE0107960E94F11367E474E0CE010196F4
:1015E0000E9482134AE0F801668DCE0107960E94A0
:1015F0005014BE01695F7F4FCE0101960E94901387
:10160000CE0107960E94F113BE016F5F7F4FCE019E
:1016100007960E947C14CE010796C6DBCE01079682
:101620000E94F11364E373E0CE0101960E94C71398
:101630006FE474E0CE0101960E9482134AE0F80143
:10164000678DCE0107960E945014BE01695F7F4FDF
:10165000CE0101960E949013CE0107960E94F113CD
:1016600066E574E0CE0101960E9482134AE0F8011B
:1016700060A1CE0107960E945014BE01695F7F4FA2
:10168000CE0101960E949013CE0107960E94F1139D
:10169000BE016F5F7F4FCE0107960E947C14CE0182
:1016A000079682DBCE0107960E94F113CE010196C8
:1016B0000E94F1132C960FB6F894DEBF0FBECDBF7B
:1016C000DF91CF911F910F9108950F931F93CF93A7
:1016D000DF93CDB7DEB72C970FB6F894DEBF0FBE01
:1016E000CDBF64E373E0CE0101960E9484146EE5E1
:1016F00074E0CE0101960E9482130EE215E0F8011B
:10170000618570E04AE0CE0107960E942514BE0173
:10171000695F7F4FCE0101960E949013CE0107961C
:101720000E94F11363E674E0CE010196EBD7F80155
:10173000628570E04AE0CE0107960E942514BE0142
:10174000695F7F4FCE010196EBD7CE0107960E94CD
:10175000F11368E674E0CE010196D4D7F8016385F1
:1017600070E04AE0CE0107960E942514BE01695F31
:101770007F4FCE010196D4D7CE0107960E94F11378
:101780006DE674E0CE010196BDD7F801648570E086
:101790004AE0CE0107960E942514BE01695F7F4F83
:1017A000CE010196BDD7CE0107960E94F113BE016E
:1017B0006F5F7F4FCE0107960E947C14CE01079683
:1017C000F3DACE0107960E94F113CE0101960E9432
:1017D000F1132C960FB6F894DEBF0FBECDBFDF918C
:1017E000CF911F910F910895EEE2F5E011861286D8
:1017F000138614866ACFEEE2F5E011861286138610
:1018000081E0848762CFEEE2F5E01186128681E006
:10181000838714865ACFEEE2F5E0118681E0828755
:101820001386148652CFEEE2F5E081E081871286BE
:10183000138614864ACFEEE2F5E0118612861386EF
:1018400081E0848742CFEEE2F5E01186128681E0E6
:10185000838714863ACFEEE2F5E0118681E0828735
:101860001386148632CFEEE2F5E081E0818712869E
:10187000138614862ACFEEE2F5E0118612861386CF
:10188000148623CF1F93CF93DF93CDB7DEB7629734
:101890000FB6F894DEBF0FBECDBF162F90E0BC018F
:1018A0006F5F7F4F4AE0CE010D96CFD762E774E0BD
:1018B000CE0101960E94841449895A896D857E85DE
:1018C000CE010196F2D6811103C0CE0101962ED72A
:1018D000BE016F5F7F4FCE0107960E947C14CE0140
:1018E00001967FD7CE010D967CD764E774E0CE01D8
:1018F000079608D764E373E0CE0101960E94841432
:101900006BE774E0CE010196FDD6BE01695F7F4FA3
:10191000CE01019605D761E674E0CE010196F2D6BC
:101920004AE0612FCE010D96BBD7BE01635F7F4FAA
:10193000CE010196F5D6CE010D9653D7BE016F5F4D
:101940007F4FCE010D96D8D7CE010D962DDACE0160
:101950000D9647D7CE01019644D7CE01079641D7C1
:1019600062960FB6F894DEBF0FBECDBFDF91CF9168
:101970001F9108950F931F93CF93DF93CDB7DEB7D9
:101980002C970FB6F894DEBF0FBECDBF64E373E0B3
:10199000CE010196B9D76DE774E0CE010196B2D6BB
:1019A0000EE215E04AE0F8016585CE01079678D78A
:1019B000BE01695F7F4FCE010196B2D6CE01079678
:1019C00010D763E874E0CE0101969CD64AE0F80196
:1019D0006685CE01079664D7BE01695F7F4FCE0151
:1019E00001969ED6CE010796FCD669E874E0CE013A
:1019F000019688D64AE0F8016785CE01079650D750
:101A0000BE01695F7F4FCE0101968AD6CE0107964F
:101A1000E8D66FE874E0CE01019674D64AE0F8018A
:101A20006089CE0107963CD7BE01695F7F4FCE012A
:101A3000019676D6CE010796D4D6BE016F5F7F4F52
:101A4000CE01079659D7CE010796AED9CE0107969B
:101A5000C8D664E373E0CE01019699D665E974E0D7
:101A6000CE0101964FD64AE0F8016189CE01079672
:101A700017D7BE01695F7F4FCE01019651D6CE01C7
:101A80000796AFD66BE974E0CE0101963BD64AE0EB
:101A9000F8016289CE01079603D7BE01695F7F4FC7
:101AA000CE0101963DD6CE0107969BD661EA74E041
:101AB000CE01019627D64AE0F8016389CE01079648
:101AC000EFD6BE01695F7F4FCE01019629D6CE01C8
:101AD000079687D667EA74E0CE01019613D64AE0EE
:101AE000F8016489CE010796DBD6BE01695F7F4F9E
:101AF000CE01019615D6CE01079673D6BE016F5F53
:101B00007F4FCE010796F8D6CE0107964DD9CE016C
:101B1000079667D6CE01019664D62C960FB6F89438
:101B2000DEBF0FBECDBFDF91CF911F910F91089502
:101B30000F931F93CF93DF93EC018881EB81FC819E
:101B4000882341F00190F081E02D309709F019953C
:101B5000188225C00D811E81E017F107C1F0FA83BC
:101B6000E9830480F581E02D309709F019951E83F3
:101B70000D831C830B83D801ED91FC91309709F004
:101B800019950E942F1D6F83788789879A87EB812B
:101B9000FC810280F381E02D309709F01995CE0188
:101BA000DF91CF911F910F9108958F929F92AF92E5
:101BB000BF92CF92DF92EF92FF920F931F93CF933A
:101BC000DC011796CC911797662311F08C2F01C07A
:101BD00080E018962C91189730E0220F331F2E5F6B
:101BE0003D4F40E050E0BA01F90105911491F80130
:101BF00090819C23981315C06A017B019FEFC91A3D
:101C0000D90AE90AF90A1D968D909D90AD90BC9075
:101C10005097481559056A057B0538F4B701A601A8
:101C2000E3CF342F252FCB0104C030E020E080E04B
:101C300090E0632F722FCF911F910F91FF90EF9043
:101C4000DF90CF90BF90AF909F908F900895CF93EB
:101C5000DF93EC016B817C816368716B888118D4A0
:101C6000698170E080E090E00E94F71C88810E940A
:101C7000FF022A81022E02C0969587950A94E2F708
:101C8000222329F0811528E0920708F0906FDF9158
:101C9000CF910895CF93DF93EC016B817C816368D2
:101CA00071688881F5D3698170E080E090E00E94DE
:101CB000F71C88810E94FF022A81022E02C096959D
:101CC00087950A94E2F7222329F0811528E09207EC
:101CD00008F0906FDF91CF910895CF92DF92EF924D
:101CE000FF92CF93DF93EC018881982F917081FB55
:101CF000222720F9921759F090FB81F9888380FF01
:101D000006C00E942F1D6D837E838F8398878881F4
:101D100080FF16C0C980DA80EB80FC808D819E81B7
:101D2000AF81B885C80ED91EEA1EFB1E0E942F1D6A
:101D30006C157D058E059F0560F08881846008C064
:101D40000E942F1D6D837E838F83988788818B7F70
:101D50008883DF91CF91FF90EF90DF90CF9008952F
:101D6000FC01538D448D252F30E0842F90E0821BA1
:101D7000930B541710F0CF96089501970895FC0126
:101D8000918D828D981761F0828DDF01A80FB11DB2
:101D90005D968C91928D9F5F9F73928F90E00895D6
:101DA0008FEF9FEF0895FC01918D828D981731F090
:101DB000828DE80FF11D858D90E008958FEF9FEFE4
:101DC0000895FC01918D228D892F90E0805C9F4FBA
:101DD000821B91098F739927089587EA96E0F1DFB6
:101DE00021E0892B09F420E0822F0895FC01848DE5
:101DF000DF01A80FB11DA35ABF4F2C91848D90E035
:101E000001968F739927848FA689B7892C93A0890F
:101E1000B1898C9180648C93938D848D981306C0C6
:101E20000288F389E02D80818F7D80830895EF9271
:101E3000FF920F931F93CF93DF93EC0181E0888F84
:101E40009B8D8C8D981305C0E889F989808185FD6B
:101E500023C0F62E0B8D10E00F5F1F4F0F7311275D
:101E6000E02E8C8DE8120BC00FB607FCFACFE88984
:101E7000F989808185FFF5CFCE01B8DFF2CF8B8D58
:101E8000FE01E80FF11DE35AFF4FF0820B8FEA8944
:101E9000FB898081806207C0EE89FF896083E889C1
:101EA000F98980818064808381E090E0DF91CF9127
:101EB0001F910F91FF90EF900895CF93DF93EC0166
:101EC000888D8823C1F0EA89FB89808185FD05C062
:101ED000A889B9898C9186FD0EC00FB607FCF5CF95
:101EE000808185FFF2CFA889B9898C9185FFEDCFDC
:101EF000CE017CDFE8CFDF91CF91089580E090E0C4
:101F0000892B19F06ADF811125C080E090E0892BD0
:101F100041F080E090E0892B21F00E9400008111C7
:101F20001CC080E090E0892B41F080E090E0892B9C
:101F300021F00E940000811113C080E090E0892B05
:101F4000A1F080E090E0892B81F00E9400008111D7
:101F50000AC008950E940000D8CF0E940000E1CF7F
:101F60000E940000EACF0C94000008950E947C3487
:101F70006115710579F0FB0101900020E9F73197B7
:101F8000AF01461B570BDC01ED91FC910280F38100
:101F9000E02D199480E090E008951F920F920FB603
:101FA0000F9211240BB60F922F933F934F935F9391
:101FB0006F937F938F939F93AF93BF93EF93FF9311
:101FC00087EA96E013DFFF91EF91BF91AF919F9168
:101FD0008F917F916F915F914F913F912F910F90D2
:101FE0000BBE0F900FBE0F901F9018951F920F926F
:101FF0000FB60F9211240BB60F922F938F939F93CE
:10200000EF93FF93E091B706F091B8068081E091DD
:10201000BD06F091BE0682FD12C090818091C0067F
:102020008F5F8F732091C106821751F0E091C00637
:10203000F0E0E955F94F958F8093C00601C080818B
:10204000FF91EF919F918F912F910F900BBE0F9069
:102050000FBE0F901F901895CF92DF92EF92FF92D4
:102060000F931F93CF93DF936C017A018B01C0E034
:10207000D0E0CE15DF0589F0D8016D918D01D60134
:10208000ED91FC910190F081E02DC6011995892B0D
:1020900011F47E0102C02196ECCFC701DF91CF91F0
:1020A0001F910F91FF90EF90DF90CF9008958F9246
:1020B0009F92AF92BF92CF92DF92EF92FF920F93D7
:1020C0001F93CF93DF93CDB7DEB7C054D1400FB687
:1020D000F894DEBF0FBECDBF8C010E942F1DF8010A
:1020E000C184D284E384F4849B01AC012C193D09A2
:1020F0004E095F0969017A0130EDC31637E0D30656
:10210000E104F10410F48189B0C0F801618772879D
:10211000838794871482138212821182108261E075
:1021200085810E941F1C6AEF70E080E090E00E94B1
:10213000F71C61E0F80185810E949C1C60E0F801B9
:1021400085810E941F1C64E170E080E090E00E94A5
:10215000F71CF89461E0F80185810E941F1C8BE94F
:1021600090E00197F1F762E0F80185810E949C1CE4
:1021700083E290E00197F1F760E0C80116DD672B7C
:10218000682B692B21F4F801118A78943FC061E033
:10219000C8010BDD672B682B692BA9F39E012F5F0C
:1021A0003F4F79015E013FEBA31A3EEFB30A67018F
:1021B00060E0C801FADCF601608371838283938357
:1021C00061E0C801F2DCF60164837583868397833E
:1021D000F8E0CF0ED11CCA14DB0451F7789420E04C
:1021E00030E0F70140815181628173818480958064
:1021F000A680B780411551056105710529F081144C
:102200009104A104B10421F4F801118A80E02DC0E9
:10221000F90183E0F595E7958A95E1F7E00FF11F65
:102220008081880F481559056A057B0508F481608F
:1022300080832F5F3F4FF8E0EF0EF11C283231050D
:1022400081F6F801248130E04081818190E0840FA3
:10225000911D4281840F911D4381840F911D992707
:102260002817390789F681E0818BC05CDE4F0FB6F5
:10227000F894DEBF0FBECDBFDF91CF911F910F91BC
:10228000FF90EF90DF90CF90BF90AF909F908F9096
:1022900008950F931F93CF93DF93EC018881998169
:1022A000009729F02A813B812617370788F48B0194
:1022B0006F5F7F4F0E949833009761F09983888306
:1022C0001B830A832C813D81232B11F4FC01108296
:1022D00081E001C080E0DF91CF911F910F910895BF
:1022E0002091560690915506213208F04AC08091FF
:1022F00032068111FCCF32E03093320631E0309368
:1023000031063FEF3093300610922F0620932E06B1
:10231000A5E3B6E04EE056E0FA013E2F341B32173B
:1023200018F43D913193F9CF10920D0620910D06CE
:10233000990F922B90930D0690910C06913061F4B9
:1023400010920C0690910D069093BB009091BC00EA
:1023500093FDF8CF95EC01C095EE9093BC00909161
:1023600032069230E1F3909130069F3F79F08091F0
:102370003006803241F080913006803331F084E0C5
:1023800005C081E003C082E001C083E01092340602
:1023900010925606109233060895CF93DF93CDB76F
:1023A000DEB728970FB6F894DEBF0FBECDBF28E08A
:1023B000EDE7F2E0DE01119601900D922A95E1F72A
:1023C000FC012185261710F46FEF620FFE01319694
:1023D000E60FF11DE60FF11D6081606840E0289670
:1023E0000FB6F894DEBF0FBECDBFDF91CF910C9436
:1023F0003024909132069111FCCF91E090933206F7
:10240000909331062FEF2093300610922F06260F5F
:1024100020932E0690930D0690910D06880F892B20
:1024200080930D0680910C06813061F410920C06A9
:1024300080910D068093BB008091BC0083FDF8CF96
:1024400085EC01C085EE8093BC008091320681301E
:10245000E1F380912F06861710F460912F06AEE00D
:10246000B6E02CEE35E0F9018E2F821B861718F4AA
:102470008D918193F9CF862F0895813208F080E203
:10248000682F88E6B6DF1092EB058093EA05089581
:102490001F93CF93DF931F92CDB7DEB7162F91E036
:1024A0009093330680935506109234061092560688
:1024B00061E08FE497E079830E94F11B7981672FB7
:1024C0008FE497E00E94F11B612F8FE497E00E9458
:1024D000F11B0F90DF91CF911F9102CFCF92DF922E
:1024E000EF92FF92CF93DF93EC01E1DD882381F13E
:1024F0008E818B3031F160F18551823048F56881F1
:1025000070E080E090E00E94F62F20E030E040E8AC
:1025100053E40E9457306B017C018981682F70E081
:1025200080E090E00E94F82F9B01AC01C701B6014A
:102530000E9463312DEC3CEC4CEC5DE30E94573083
:102540000BC0688170E080E090E00E94F62F04C02C
:1025500060E070E080EC9FE7DF91CF91FF90EF901B
:10256000DF90CF900895CF92DF92EF92FF921F936A
:10257000CF93DF93EC019BDD8823B1F18E818B300B
:1025800029F090F18551823040F02EC06A8170E0D0
:1025900080E090E00E94F62F2BC01A81612F6F77A8
:1025A00070E080E090E00E94F82F20E030E040E80A
:1025B00053E40E9457306B017C018B81682F70E0DF
:1025C00080E090E00E94F82F9B01AC01C701B601AA
:1025D0000E9463312DEC3CEC4CEC5DE30E945730E3
:1025E00017FF06C0905804C060E070E080EC9FE7E1
:1025F000DF91CF911F91FF90EF90DF90CF900895E2
:102600001092EB051092EA051092340610925606CD
:102610001092320681E08093310610920C0661E040
:1026200084E10E941F1C61E085E10E941F1CE9EB10
:10263000F0E080818E7F808380818D7F808388E43D
:102640008093B80085E48093BC000895EF92FF92D8
:102650000F931F93CF93DF936115710511F480E001
:102660001DC08B01EC01CB010E943D2D0097A9F00C
:102670002C813D817C01E20EF31EB701CE0109DE03
:10268000882369F3288139818C819D81B801820F6B
:10269000931F0E94362DFD82EC8281E0DF91CF9165
:1026A0001F910F91FF90EF900895EF92FF920F937B
:1026B0001F93CF93DF93FC01248135816115710550
:1026C00011F480E018C041155105A1F07B01EC0127
:1026D0008A01020F131FB801DCDD882391F32881E2
:1026E00039818C819D81B701820F931F0E948934AB
:1026F0001D830C8381E0DF91CF911F910F91FF909B
:10270000EF9008956115710549F0FB0101900020DB
:10271000E9F73197AF01461B570BC7CF80E008950B
:10272000FB014481558160817181BFCFCF93DF93DD
:10273000EC0188819981009711F00E940033198281
:1027400018821D821C821B821A82DF91CF9108950C
:10275000EF92FF920F931F93CF93DF93EC017B01D6
:102760008A01BA0196DD811103C0CE01DFDF07C007
:102770001D830C83B701888199810E948934CE0121
:10278000DF91CF911F910F91FF90EF900895CF931C
:10279000DF93EC016115710551F0FB010190002000
:1027A000E9F73197AF01461B570BD2DF01C0BEDFFF
:1027B000CE01DF91CF910895CF93DF93EC01FB0120
:1027C0008617970751F0608171816115710521F0BD
:1027D00044815581BDDF01C0A9DFCE01DF91CF91DA
:1027E0000895FC01808191810C940033EF92FF9257
:1027F0000F931F93CF93DF93CDB7DEB7A1970FB69B
:10280000F894DEBF0FBECDBF7C01CB01BA01F7014A
:1028100011821082138212821582148242E0420FCA
:102820008E010F5F1F4F0E94172DBC01C701AFDF44
:10283000A1960FB6F894DEBF0FBECDBFDF91CF914A
:102840001F910F91FF90EF9008950F931F93CF93D7
:10285000DF93CDB7DEB762970FB6F894DEBF0FBE39
:10286000CDBF8C01CB01F80111821082138212823C
:102870001582148250E0BE016F5F7F4F0E94462D8B
:10288000BE016F5F7F4FC80182DF62960FB6F8947A
:10289000DEBF0FBECDBFDF91CF911F910F91089585
:1028A0000F931F93CF93DF93CDB7DEB729970FB662
:1028B000F894DEBF0FBECDBF8C01862FF8011182C8
:1028C0001082138212821582148250E0BE016F5F63
:1028D0007F4F90E00E945A2DBE016F5F7F4FC8016D
:1028E00056DF29960FB6F894DEBF0FBECDBFDF913D
:1028F000CF911F910F910895FC01118210821382D4
:1029000012821582148258CFFC0111821082138228
:102910001282158214826115710549F0FB01019044
:102920000020E9F73197AF01461B570B11CF0895EF
:102930004F925F926F927F92EF92FF920F931F934D
:10294000CF93DF93CDB7DEB7A1970FB6F894DEBF74
:102950000FBECDBF7C01FA01CB0119A2223008F4D1
:102960002AE08E010F5D1F4F422E512C612C712CDD
:10297000BF01A30192010E943131F901CA01015046
:1029800011096A3014F4605D01C0695CD8016C9370
:10299000232B242B252B61F7B801C701E9DAA19677
:1029A0000FB6F894DEBF0FBECDBFDF91CF911F9160
:1029B0000F91FF90EF907F906F905F904F900895F0
:1029C0000F931F93CF93DF93EC01D2DA8C0162E374
:1029D00073E0CE01CDDA800F911FDF91CF911F916F
:1029E0000F910895DC01ED91FC910190F081E02DB3
:1029F00019944F925F926F927F928F929F92AF92B3
:102A0000BF92CF92DF92EF92FF926B017C01B42EC6
:102A10009B01AC010E945F32882319F061E075E0F0
:102A200027C026013701E89477F82FEF3FEF4FE7F3
:102A30005FE7C301B2010E945F3281110DC02FEF29
:102A40003FEF4FE75FE7C301B2010E94F22F181674
:102A50001CF465E075E00CC02FEF3FEF4FE75FE43B
:102A6000C701B6010E945B3218168CF469E075E06C
:102A700087EA96E0FF90EF90DF90CF90BF90AF9005
:102A80009F908F907F906F905F904F9071CA2FEFC3
:102A90003FEF4FE75FECC701B6010E94F22F87FDC1
:102AA000E5CF20E030E0A901C701B6010E94F22F76
:102AB00087FF0AC06DE287EA96E094DF4C01F7FADF
:102AC000F094F7F8F09402C0812C912CA12C60E0D6
:102AD00070E080E09FE3AB1441F020E030E040E2A2
:102AE00051E40E94C731A394F6CF9B01AC01C7010A
:102AF000B6010E9463312B013C010E942F326B0111
:102B00007C010E94F62F9B01AC01C301B2010E941F
:102B100062312B013C012AE0B701A60187EA96E069
:102B200007DF7C01E80CF91CBB2031F06EE287EA7C
:102B300096E058DFE80EF91EDB2CDD2029F120E0BD
:102B400030E040E251E4C301B2010E9457302B0152
:102B50003C010E942F324B01A12CB12C2AE0B5017F
:102B6000A40187EA96E0E4DEE80EF91EC501B4018F
:102B70000E94F62F9B01AC01C301B2010E94623199
:102B80002B013C01DA94D9CFC701FF90EF90DF9081
:102B9000CF90BF90AF909F908F907F906F905F90FD
:102BA0004F900895CF92DF92EF92FF92CF93DF93F1
:102BB0006C01990FEE08FF08F7FE19C06DE287EA75
:102BC00096E010DFEC0144275527BA014C195D0946
:102BD0006E097F092AE087EA96E0AADE8C0F9D1F26
:102BE000DF91CF91FF90EF90DF90CF9008952AE092
:102BF000B701A60187EA96E0DF91CF91FF90EF90B1
:102C0000DF90CF9095CEDC01ED91FC91DB01149625
:102C10004D915C9115976D917C910280F381E02D2F
:102C20001994EF92FF920F931F93CF93DF938C0130
:102C30007B01C0E0D0E0F701EC0FFD1F649166233B
:102C400061F0D801ED91FC910190F081E02DC80177
:102C50001995892B11F02196EECFCE01DF91CF91FE
:102C60001F910F91FF90EF900895CF93DF93BC01D8
:102C700087EA96E0D6DFEC0162E373E087EA96E04C
:102C800077D98C0F9D1FDF91CF910895CF92DF925E
:102C9000EF92FF92CF93DF93CDB7DEB762970FB677
:102CA000F894DEBF0FBECDBF61E083EC97E075DB2B
:102CB00064E373E0CE01079627DE60912E057091E4
:102CC0002F0580913005909131059B01AC010E9448
:102CD0005F32882331F062EA73E083EC97E0A1DF92
:102CE00049C068E973E083EC97E09BDFC0902E0554
:102CF000D0902F05E0903005F090310520E030E0D5
:102D0000A901C701B6010E945B3287FD0FC020E018
:102D100030E040E251E4C701B6010E94F22F87FF84
:102D200005C061E175E0CE010796ECDC40912E050F
:102D300050912F05609130057091310520E0CE0152
:102D4000019654DDBE016F5F7F4FCE010796E8DC30
:102D5000CE01019646DDBE01695F7F4F83EC97E0AF
:102D600052DF6FED83EC97E03DDE6DE075E083ECC4
:102D700097E0FED862E083EC97E00FDB6EE873E04B
:102D800083EC97E04EDF64E373E0CE010196BCDD97
:102D900020E030E040E251E460913205709133056B
:102DA00080913405909135050E94F22F87FF05C070
:102DB00061E175E0CE010196A5DCC0903205D090AE
:102DC0003305E0903405F09035052DEC3CEC47ECF4
:102DD00052E4C701B6010E94F22F1816C4F020E099
:102DE000B701A601CE010D9601DDBE01635F7F4FE5
:102DF000CE01019695DCCE010D96F3DCBE016F5F2E
:102E00007F4F83EC97E0FFDE63E175E002C06AE18B
:102E100075E083EC97E0ACD880913605882319F0F3
:102E200063E275E002C067E275E083EC97E0A0D84A
:102E300063E083EC97E0B1DA6AE873E083EC97E053
:102E4000F0DE80913705882319F067E873E002C04F
:102E500064E873E083EC97E0E4DE60E873E083EC21
:102E600097E0DFDE80913805882319F06DE773E085
:102E700002C06AE773E083EC97E0D3DE66E773E0B5
:102E800083EC97E0CEDE80913905882319F063E763
:102E900073E002C060E773E083EC97E0C2DE6CE6AB
:102EA00073E083EC97E0BDDE80913A05882319F04A
:102EB00069E673E002C066E673E083EC97E0B1DE9A
:102EC00060E087EB97E069DA6EE573E087EB97E007
:102ED000A8DE80913B058A3028F46CE573E087EB2F
:102EE00097E09FDE40913B0550E060E070E02AE013
:102EF00087EB97E01DDD63E573E087EB97E091DEFC
:102F000080913C058A3028F461E573E087EB97E017
:102F100088DE40913C0550E060E070E02AE087EBFD
:102F200097E006DD6EE473E087EB97E07ADE61E020
:102F300087EB97E032DA66E473E087EB97E071DEC7
:102F400080913D058A3028F464E473E087EB97E0D4
:102F500068DE40913D0550E060E070E02AE087EBDC
:102F600097E0E6DC6BE373E087EB97E05ADE809155
:102F70003E058A3028F469E373E087EB97E051DE81
:102F800040913E0550E060E070E02AE087EB97E07A
:102F9000CFDC66E373E087EB97E043DE62E087EB2C
:102FA00097E0FBD96EE273E087EB97E03ADE809121
:102FB0003F058A3028F46CE273E087EB97E031DE5E
:102FC00040913F0550E060E070E02AE087EB97E039
:102FD000AFDC63E273E087EB97E023DE809140058E
:102FE0008A3028F461E273E087EB97E01ADE4091C3
:102FF000400550E060E070E02AE087EB97E098DC65
:103000006EE173E087EB97E00CDE63E087EB97E01F
:10301000C4D966E173E087EB97E003DE8091410558
:103020008A3028F464E173E087EB97E0FADD4091A1
:10303000410550E060E070E02AE087EB97E078DC43
:103040006BE073E087EB97E0ECDD809142058A301E
:1030500028F469E073E087EB97E0E3DD40914205F7
:1030600050E060E070E02AE087EB97E061DC66E02A
:1030700073E087EB97E0D5DDCE010196B2DBCE01A0
:103080000796AFDB62960FB6F894DEBF0FBECDBFDA
:10309000DF91CF91FF90EF90DF90CF900895FF9256
:1030A0000F931F93CF93DF93CDB7DEB72C970FB657
:1030B000F894DEBF0FBECDBF81E08093330688E673
:1030C00080935506109234061092560660E08FE405
:1030D00097E087D305D987E090E0CFD98FE497E0D8
:1030E00035D38F77982F92959F702AEFF22E182F55
:1030F0009F9D100D11248FE497E028D39C01332766
:1031000044E0359527954A95E1F7082FF29E000D8A
:1031100011248FE497E01AD39C01332754E03595AE
:1031200027955A95E1F7482FF29E400D1124F42E71
:103130008FE497E00BD38FE497E008D38FE497E018
:1031400005D38FE497E002D364E373E0CE010196E8
:10315000DBDB89E08F1528F064E073E0CE01019697
:1031600075DA4AE06F2DCE0107969ADBBE01695FE2
:103170007F4FCE010196D4DACE01079632DB62E0B2
:1031800073E0CE01019662DA0A3028F460E073E061
:10319000CE0101965BDA4AE0602FCE01079680DB14
:1031A000BE01695F7F4FCE010196BADACE01079664
:1031B00018DB6EEF72E0CE01019648DA1A3028F47F
:1031C0006CEF72E0CE01019641DA4AE0612FCE0148
:1031D000079666DBBE01695F7F4FCE010196A0DADC
:1031E000CE010796FEDA60E083EC97E0D6D86FEE6A
:1031F00072E083EC97E015DDBE016F5F7F4F83ECDB
:1032000097E001DDBE016F5F7F4F87EA96E0FBDC50
:1032100062E373E087EA96E00E94B80FCE01019660
:10322000E0DA2C960FB6F894DEBF0FBECDBFDF916B
:10323000CF911F910F91FF900895CF92DF92EF925F
:10324000FF9282EB97E00E944A0EBC01990F880B17
:10325000990B0E94F82F20E030E040E45EE30E94EA
:1032600057306B017C0120E030E0A9010E94F22F71
:103270001816F4F420E030E84BE355E4C701B6013A
:103280000E945B3287FF18C020E030E040E451E448
:10329000C701B6010E94573020E030E84BE355E407
:1032A0000E94C73120E030E0A9010E94633108C0CC
:1032B00060E070E0CB0104C060E070E080E491E485
:1032C0000E942F3260933B0582EB97E00E94270E0D
:1032D000BC01990F880B990B0E94F82F20E030E079
:1032E00040E45EE30E9457306B017C0120E030E057
:1032F000A9010E94F22F1816F4F420E030E84BE305
:1033000055E4C701B6010E945B3287FF18C020E078
:1033100030E040E451E4C701B6010E94573020E09C
:1033200030E84BE355E40E94C73120E030E0A901CA
:103330000E94633108C060E070E0CB0104C060E02F
:1033400070E080E491E40E942F3260933C058DEAA6
:1033500097E00E944A0EBC01990F880B990B0E94BE
:10336000F82F20E030E040E45EE30E9457306B012C
:103370007C0120E030E0A9010E94F22F1816F4F43D
:1033800020E030E84BE355E4C701B6010E945B3210
:1033900087FF18C020E030E040E451E4C701B601E7
:1033A0000E94573020E030E84BE355E40E94C731DB
:1033B00020E030E0A9010E94633108C060E070E0C5
:1033C000CB0104C060E070E080E491E40E942F3201
:1033D00060933D058DEA97E00E94270EBC01990F8E
:1033E000880B990B0E94F82F20E030E040E45EE368
:1033F0000E9457306B017C0120E030E0A9010E945F
:10340000F22F1816F4F420E030E84BE355E4C7013E
:10341000B6010E945B3287FF18C020E030E040E434
:1034200051E4C701B6010E94573020E030E84BE379
:1034300055E40E94C73120E030E0A9010E946331C9
:1034400008C060E070E0CB0104C060E070E080E4A0
:1034500091E40E942F3260933E0588EA97E00E9433
:103460004A0EBC01990F880B990B0E94F82F20E09F
:1034700030E040E45EE30E9457306B017C0120E0C5
:1034800030E0A9010E94F22F1816F4F420E030E891
:103490004BE355E4C701B6010E945B3287FF18C0B9
:1034A00020E030E040E451E4C701B6010E9457300B
:1034B00020E030E84BE355E40E94C73120E030E0E3
:1034C000A9010E94633108C060E070E0CB0104C034
:1034D00060E070E080E491E40E942F3260933F0549
:1034E00088EA97E00E94270EBC01990F880B990B80
:1034F0000E94F82F20E030E040E45EE30E94573065
:103500006B017C0120E030E0A9010E94F22F181627
:10351000F4F420E030E84BE355E4C701B6010E9423
:103520005B3287FF18C020E030E040E451E4C7017F
:10353000B6010E94573020E030E84BE355E40E948A
:10354000C73120E030E0A9010E94633108C060E08B
:1035500070E0CB0104C060E070E080E491E40E9480
:103560002F326093400583EA97E00E944A0EBC0127
:10357000990F880B990B0E94F82F20E030E040E46F
:103580005EE30E9457306B017C0120E030E0A9012E
:103590000E94F22F1816F4F420E030E84BE355E4D3
:1035A000C701B6010E945B3287FF18C020E030E0FF
:1035B00040E451E4C701B6010E94573020E030E8F2
:1035C0004BE355E40E94C73120E030E0A9010E949E
:1035D000633108C060E070E0CB0104C060E070E0DF
:1035E00080E491E40E942F326093410583EA97E0E2
:1035F0000E94270EBC01990F880B990B0E94F82F8F
:1036000020E030E040E45EE30E9457306B017C0133
:1036100020E030E0A9010E94F22F1816F4F420E017
:1036200030E84BE355E4C701B6010E945B3287FFE7
:1036300018C020E030E040E451E4C701B6010E9428
:10364000573020E030E84BE355E40E94C73120E0DA
:1036500030E0A9010E94633108C060E070E0CB0156
:1036600004C060E070E080E491E40E942F32609337
:103670004205FF90EF90DF90CF9008953FB7F89408
:103680008091A3069091A406A091A506B091A606EC
:1036900026B5A89B05C02F3F19F00196A11DB11DAD
:1036A0003FBFBA2FA92F982F8827820F911DA11DE8
:1036B000B11DBC01CD0142E0660F771F881F991F25
:1036C0004A95D1F70895089585ED8093BC008091C7
:1036D000BC0084FDFCCF109232060895409179061B
:1036E000262F30E0240F311D21323105DCF42091EA
:1036F00032062430C9F4FC0180E090E0861758F4CB
:10370000309179062191DC01A95AB94FA30FB11D5F
:103710002C930196F3CF80917906680F6093790618
:1037200080E0089581E0089582E008950895E09191
:10373000EB058091EA05E81730F4F0E0E451FA4F28
:10374000808190E008958FEF9FEF08959091EB05B1
:103750008091EA05981750F4E92FF0E0E451FA4F10
:10376000208130E09F5F9093EB0502C02FEF3FEF89
:10377000C90108958091EA0590E02091EB05821B34
:1037800091090895CF92DF92EF92FF920F931F93CA
:10379000CF93DF937C01262F972F8A0180913306E8
:1037A000882391F0C62FD72F6E01C40ED51ECC15DD
:1037B000DD0569F06991D701ED91FC910190F081EF
:1037C000E02DC7011995F3CF642F822F87DFC80141
:1037D000DF91CF911F910F91FF90EF90DF90CF90ED
:1037E0000895CF93DF931F92CDB7DEB76983209101
:1037F00033062223D1F020915606203240F021E0FA
:1038000030E0FC013383228380E090E014C080919B
:103810003406E82FF0E0EB5CF94F998190838F5FDD
:10382000809334068093560604C061E0CE01019671
:1038300055DF81E090E00F90DF91CF910895362F12
:1038400090E0FC01E551FC4F4491FC01E958FB4F2D
:103850002491FC01EF5CFB4F9491992309F46BC018
:10386000442309F455C050E0FA013197E231F105E3
:1038700008F04EC08827EE58FF4F8F4F0C946332EC
:10388000809180008F7707C0809180008F7D03C07A
:1038900080918000877F809380003AC084B58F77C5
:1038A00002C084B58F7D84BD33C08091B0008F7716
:1038B00003C08091B0008F7D8093B00029C08091BB
:1038C00090008F7707C0809190008F7D03C080911A
:1038D0009000877F809390001BC08091A0008F771D
:1038E00007C08091A0008F7D03C08091A000877FDA
:1038F0008093A0000DC0809120018F7707C0809138
:1039000020018F7D03C080912001877F809320015B
:10391000E92FF0E0EE0FFF1FEF52FC4FA591B4919D
:103920008FB7F894EC91311103C020952E2301C07C
:103930002E2B2C938FBF0895CF93DF9390E0FC0143
:10394000E958FB4F2491FC01EF5CFB4F84918823E5
:1039500061F190E0880F991FFC01E954FC4FC5917B
:10396000D491FC01EF52FC4FA591B491611109C0B3
:103970009FB7F8948881209582238883EC912E2329
:103980000BC0623061F49FB7F8943881822F809524
:1039900083238883EC912E2B2C939FBF06C08FB777
:1039A000F894E8812E2B28838FBFDF91CF91089563
:1039B000863308F0865390917B00282F2870977FDC
:1039C000922B90937B008770806480937C00809121
:1039D0007A00806480937A0080917A0086FDFCCF23
:1039E000809178002091790090E0922B08958F9239
:1039F0009F92AF92BF92CF92DF92EF92FF926B01B4
:103A00007C013CDE4B015C01C114D104E104F104F2
:103A1000E9F034DEDC01CB0188199909AA09BB0958
:103A2000883E9340A105B10578F321E0C21AD10880
:103A3000E108F10888EE880E83E0981EA11CB11CF5
:103A4000C114D104E104F10421F7DECFFF90EF901F
:103A5000DF90CF90BF90AF909F908F9008952FB739
:103A6000F89460919F067091A0068091A1069091B4
:103A7000A2062FBF08951F920F920FB60F92112426
:103A80002F933F938F939F93AF93BF9380919F0604
:103A90009091A006A091A106B091A20630919E0639
:103AA00023E0230F2D3720F40196A11DB11D05C081
:103AB00026E8230F0296A11DB11D20939E06809338
:103AC0009F069093A006A093A106B093A2068091B2
:103AD000A3069091A406A091A506B091A606019612
:103AE000A11DB11D8093A3069093A406A093A506E3
:103AF000B093A606BF91AF919F918F913F912F9167
:103B00000F900FBE0F901F9018950F931F93CF9398
:103B1000DF93EC018B016BE275E08F8598890E9441
:103B20008213B8018F859889DF91CF911F910F91F2
:103B30000C949013CF93DF93EC018D819E81DC0177
:103B4000ED91FC910084F185E02D19951816190668
:103B500054F48D819E81DC01ED91FC910284F3850A
:103B6000E02D1995EACFDF91CF9108958F929F9222
:103B7000AF92BF92CF92DF92EF92FF92CF93DF93FB
:103B8000EC016B016CDF4B015C01E12CF12C8D81B0
:103B90009E81DC01ED91FC910284F385E02D199565
:103BA00097FF0EC05CDFDC01CB0188199909AA09D7
:103BB000BB098C159D05AE05BF0548F38FEF9FEF40
:103BC000DF91CF91FF90EF90DF90CF90BF90AF90BB
:103BD0009F908F900895FC01238134812627022E27
:103BE0002295207F2025032E322F22952F7002262A
:103BF000269532272327220F220F220F20253483D8
:103C000023830895CF92DF92EF92FF920F931F9339
:103C10006801790100E010E020E030E0E5D11F917B
:103C20000F91FF90EF90DF90CF9008950F931F9327
:103C3000CF93DF9300D0CDB7DEB729E42983FC0111
:103C400026852A836B8300E010E020E030E043E02B
:103C500050E0BE016F5F7F4F84859585D3DF81E0A3
:103C600090E00F900F900F90DF91CF911F910F91E7
:103C70000895EF92FF920F931F93CF93DF931F92BC
:103C80001F92CDB7DEB77C01FC018189882381F0CA
:103C900087E7898386858A8300E010E020E030E0B2
:103CA00042E050E0BE016F5F7F4F84859585AADFBB
:103CB000F701118A0F900F90DF91CF911F910F9113
:103CC000FF90EF900895EF92FF920F931F93CF9381
:103CD000DF9300D0CDB7DEB7FC012289211117C0D8
:103CE0007C01138A8FE4898380E48B8386858A83B1
:103CF0009F012C5E3F4F00E410E043E050E0BE0126
:103D00006F5F7F4F848595857DDFF701828B0F90F4
:103D10000F900F90DF91CF911F910F91FF90EF9037
:103D20000895CF93DF93EC01CEDF8A89882331F0A9
:103D30008B89C80FD11D8C8990E002C08FEF9FEF57
:103D4000DF91CF910895CF93DF93EC01BCDF8A8997
:103D5000882359F081508A8B8B8991E0980F9B8B37
:103D6000C80FD11D8C8990E002C08FEF9FEFDF91CB
:103D7000CF910895CF93DF93EC01A5DF8A8990E07E
:103D8000DF91CF9108951F920F920FB60F921124D9
:103D90000BB60F922F933F934F935F936F937F9345
:103DA0008F939F93AF93BF93EF93FF938091B9004D
:103DB000887F803609F49CC068F5883209F45BC0BE
:103DC00090F4803109F454C038F4882309F4F6C023
:103DD000883009F44DC0F5C0883109F44CC08032F8
:103DE00009F45DC0EEC0803409F468C048F4803343
:103DF00009F455C0883309F0E4C080933006D8C078
:103E0000803509F44FC0883509F45DC0883409F065
:103E1000D8C0D6C0883909F4C7C0A8F4883709F4D7
:103E200067C038F4883609F463C0803709F460C08D
:103E3000C8C0883809F4B8C0803909F45FC0803838
:103E400009F0BFC05BC0803B09F486C038F4803AFB
:103E500009F466C0883A09F47FC0B3C0803C09F415
:103E6000A7C0883C09F4A4C0883B09F48AC0A9C053
:103E700080910D0610C090912F0680912E06981704
:103E800070F5E0912F0681E08E0F80932F06F0E011
:103E9000E25FF94F80818093BB0085EC86C0809300
:103EA00030068EC0E0912F0681E08E0F80932F06A2
:103EB0008091BB00F0E0E25FF94F808390912F0684
:103EC00080912E066EC0E0912F0681E08E0F8093C8
:103ED0002F068091BB00F0E0E25FF94F8083809174
:103EE000310681116DC081E080930C0684EA61C0C7
:103EF00083E08093320610929D06CFCF80919D067D
:103F0000803208F051C0E0919D0681E08E0F8093D1
:103F10009D068091BB00F0E0E358F94F8083BDCF50
:103F200085EC8093BC001092320680919D06803211
:103F300030F4E0919D06F0E0E358F94F1082609173
:103F40009D0670E0E0917B06F0917C068DE796E09F
:103F5000199510929D0635C084E080933206109228
:103F60007A0610927906E0917706F0917806199515
:103F700080917906811105C081E0809379061092C5
:103F80005706E0917A0681E08E0F80937A06F0E082
:103F9000E95AF94F80818093BB0090917A06809115
:103FA0007906981708F479CF85E88093BC0009C09A
:103FB00085EC8093BC001092320603C0109230064C
:103FC00083DBFF91EF91BF91AF919F918F917F9193
:103FD0006F915F914F913F912F910F900BBE0F907A
:103FE0000FBE0F901F9018952F923F924F925F92A5
:103FF0006F927F928F929F92AF92BF92CF92DF92F9
:10400000EF92FF920F931F93CF93DF93CDB7DEB75D
:104010002B970FB6F894DEBF0FBECDBF9B878A8764
:104020005B011901FD82EC823A01600E711E872C42
:104030007B82912C44244A94542C9B01240F351FDD
:104040003F832E839101200F311F39872887EA850E
:10405000FB858085981608F022C1AA85BB85149639
:104060005C924E92139715968D919C911697DC0158
:10407000ED91FC910190F081E02D6FEF19956FEFBC
:104080008A859B85A8DDEA85FB8585819681DC0193
:10409000ED91FC910190F081E02DAA85BB856C919A
:1040A0001995EA85FB856081CF0195DDAA85BB85E1
:1040B00015968D919C911697DC01ED91FC910190E4
:1040C000F081E02D682D19956B818A859B8583DDB4
:1040D000EA85FB8585819681DC01ED91FC9101905B
:1040E000F081E02D662D1995662D8A859B8573DDFF
:1040F00075012E813F81E216F306A9F0EA85FB8562
:10410000858196818701DC01ED91FC910190F08120
:10411000E02DD7016D917D011995F80160818A85A7
:104120009B8559DDE6CF7101AA85BB8515968D91DA
:104130009C91169728853985E216F30689F0870148
:10414000DC01ED91FC910190F081E02DD7016D91A2
:104150007D011995F80160818A859B853CDDE4CF5E
:10416000DC01ED91FC91AA85BB8514966C910190C0
:10417000F081E02D1995EA85FB8585819681DC012A
:10418000ED91FC910190F081E02DAA85BB851396FD
:104190006C91199564E670E08A859B85E7DC8F3F1A
:1041A000910509F072C0EA85FB85548243826FEF66
:1041B000CF0111DD65E070E08A859B85D7DCAA859B
:1041C000BB856C91262F30E08217930709F05DC004
:1041D000CD0101DD6AE070E08A859B85C7DC7C014A
:1041E00097FD53C0682F8A859B85F5DC6AE070E0F7
:1041F0008A859B85BBDC8C0197FD47C0682F8A852B
:104200009B85E9DCEA821982E981FA810E0F1F1F82
:10421000E12CF12C65E070E08A859B85E016F106C3
:1042200099F0EC14FD0481F0A1DC97FD09C0EC814C
:10423000FD81EE0DFF1D8083682F8A859B85CBDC79
:10424000FFEFEF1AFF0AE6CF91DC7C0197FD1DC05E
:1042500065E070E08A859B8589DC97FD16C0FE2CA1
:10426000EE248E0D9F1DAA85BB8513962D913C9142
:1042700014972817390749F48C918F5F8C93C801E4
:10428000C016D10670F4C6010CC0939464E670E0C9
:1042900080E090E0ACDB8A859B854CDCD8CE8FEF4C
:1042A0009FEF2B960FB6F894DEBF0FBECDBFDF9108
:1042B000CF911F910F91FF90EF90DF90CF90BF9023
:1042C000AF909F908F907F906F905F904F903F90B6
:1042D0002F9008950F931F93C2DB0091DE0710917A
:1042E000DF072091E0073091E107601B710B820B23
:1042F000930B1F910F910895CF93DF93C7EDD7E0F4
:104300002B813C813A8329839E838D83A8DB6F8335
:10431000788789879A87CE01DF91CF910895FC0134
:10432000A089B18982E08C93A485B5851C92A6856D
:10433000B78580E18C93108EA489B58986E08C9333
:10434000A289B3898C9180618C93A289B3898C9165
:1043500088608C93A289B3898C9180688C93028841
:10436000F389E02D80818F7D80830895CF92DF9245
:10437000EF92FF92CF93DF9386E31ADBCEE2D5E094
:104380009C01A2E3B0E00E945331DC01CB012AE0A2
:10439000B595A795979587952A95D1F79C01AD017D
:1043A0002550310941095109A4E6B0E00E942731A6
:1043B00038E2C32ED12CE12CF12CA70196010E94EA
:1043C0000B31298F87E3F4DA9C01A2E3B0E00E946D
:1043D0005331DC01CB014AE0B595A79597958795B8
:1043E0004A95D1F79C01AD01255031094109510988
:1043F000A4E6B0E00E942731A70196010E940B318C
:104400002A8F88E3D5DA9C01A2E3B0E00E94533101
:10441000DC01CB015AE0B595A795979587955A95FC
:10442000D1F79C01AD012550310941095109A4E69C
:10443000B0E00E942731A70196010E940B312B8F1B
:1044400089E3B6DA9C01A2E3B0E00E945331DC01BB
:10445000CB016AE0B595A795979587956A95D1F7B1
:104460009C01AD012550310941095109A4E6B0E094
:104470000E942731A70196010E940B312C8F8AE3FD
:1044800097DA9C01A2E3B0E00E945331DC01CB013A
:104490007AE0B595A795979587957A95D1F79C0180
:1044A000AD012550310941095109A4E6B0E00E944F
:1044B0002731A70196010E940B312D8F8BE378DA0B
:1044C0009C01A2E3B0E00E945331DC01CB01EAE0A1
:1044D000B595A79597958795EA95D1F79C01AD017C
:1044E0002550310941095109A4E6B0E00E94273165
:1044F000A70196010E940B312E8F8CE359DA9C01A3
:10450000A2E3B0E00E945331DC01CB01FAE0B595A3
:10451000A79597958795FA95D1F79C01AD01255000
:10452000310941095109A4E6B0E00E942731A701F1
:1045300096010E940B312F8F8DE33ADA9C01A2E3A2
:10454000B0E00E945331DC01CB012AE0B595A7957C
:10455000979587952A95D1F79C01AD012550310992
:1045600041095109A4E6B0E00E942731A701960154
:104570000E940B3128A3DF91CF91FF90EF90DF9045
:10458000CF9008954F925F926F927F928F929F92F9
:10459000AF92BF92CF92DF92EF92FF92CF93DF93D1
:1045A0008AE695E00E9435166DE575E087EA96E0AB
:1045B0000E94111681E997E00E94B31241E00E9427
:1045C000F9148AE595E00E9435168FE797E00E947E
:1045D000B31220E030E0A9010E9463314B015C017D
:1045E0006DE475E087EA96E00E94111681E997E094
:1045F0000E946E1241E00E94F9148AE495E00E9444
:10460000351681E997E00E946E1220E030E0A901A2
:104610000E9463316B017C016DE375E087EA96E0EF
:104620000E9411168FE797E00E94B31241E00E94AA
:10463000F9148AE395E00E9435168FE797E00E940F
:10464000B3129B01AC01C501B4010E9463314B015F
:104650005C016DE275E087EA96E00E9411168FE733
:1046600097E00E946E1241E00E94F9148AE295E000
:104670000E9435168FE797E00E946E129B01AC01F5
:10468000C701B6010E9463316B017C016DE175E0E9
:1046900087EA96E00E9411168DE697E00E94B31219
:1046A00041E00E94F9148AE195E00E9435168DE6FA
:1046B00097E00E94B3129B01AC01C501B4010E94B6
:1046C00063314B015C016DE075E087EA96E00E9482
:1046D00011168DE697E00E946E1241E00E94F914D7
:1046E0008AE095E00E9435168DE697E00E946E12F2
:1046F0009B01AC01C701B6010E9463316B017C01D3
:104700006DEF74E087EA96E00E9411168BE597E062
:104710000E94B31241E00E94F9148AEF94E00E94D3
:1047200035168BE597E00E94B3129B01AC01C501E1
:10473000B4010E9463312B013C016DEE74E087EA05
:1047400096E00E9411168BE597E00E946E1241E000
:104750000E94F9148AEE94E00E9435168BE597E0EA
:104760000E946E124B015C01CEE2D5E020E030E009
:1047700040E85EE3C301B2010E9457306883798349
:104780008A839B83A5019401C701B6010E9463310E
:1047900020E030E040E85EE30E9457306C837D8388
:1047A0008E839F8362ED74E087EA96E00E94111683
:1047B000688179818A819B8141E00E94F91462E3DA
:1047C00073E087EA96E00E94B80F6DEB74E087EA29
:1047D00096E00E9411166C817D818E819F8141E05F
:1047E0000E94F91462E373E087EA96E00E94B80F32
:1047F000DF91CF91FF90EF90DF90CF90BF90AF907F
:104800009F908F907F906F905F904F900895FC01E4
:10481000248131E0309333062093550610923406FC
:10482000109256068385682B8FE497E00E94F11B57
:104830000C9470110F931F93CF938C01C62FE7DF59
:104840006C2F6460C801E3DF6C2F6B7FC801DFDF72
:1048500083EC90E00197F1F7CF911F910F910895AC
:10486000FF920F931F93CF93DF931F92CDB7DEB7C5
:104870008C01F62E962F907F692F642BC8014983F7
:10488000D9DF80E1F89EB00111244981642BC80171
:104890000F90DF91CF911F910F91FF90CBCF41E00F
:1048A000DFDF81E090E0089540E061E0D9DF8BE355
:1048B0009FE10197F1F7089561E08DE03DD861E057
:1048C0008DE00E941F1C6AEF70E080E090E08FD8BE
:1048D00060E08DE00E941F1C6AEF70E080E090E0D5
:1048E00086D8EDCF0F931F93CF93DF930091D3071B
:1048F0001091D407012B99F0C091D307D091D40720
:104900000E811F81209731F0CE010E94F113CE015C
:104910000E9400331093D4070093D307EBCFDF91AD
:10492000CF911F910F910895CF93DF93CDB7DEB74D
:104930002F970FB6F894DEBF0FBECDBF789484B525
:10494000826084BD84B5816084BD85B5826085BD8B
:1049500085B5816085BD80916E00816080936E0019
:10496000109281008091810082608093810080910B
:1049700081008160809381008091800081608093BC
:1049800080008091B10084608093B1008091B0007C
:1049900081608093B000809191008260809391004B
:1049A000809191008160809391008091900081605E
:1049B000809390008091A10082608093A1008091FB
:1049C000A10081608093A1008091A000816080930C
:1049D000A0008091210182608093210180912101BA
:1049E000816080932101809120018160809320016A
:1049F00080917A00846080937A0080917A0082604E
:104A000080937A0080917A00816080937A0080910F
:104A10007A00806880937A001092C10060ED77E0A0
:104A200080E090E00E94F71C87EA96E078DC6DEA6F
:104A300074E087EA96E00E94E01480914D0790911F
:104A40004E076DDC80914B078111BFC081E08093E0
:104A50004B0784E497E06ED868EE73E080E090E066
:104A60000E94F71C8091490790914A07DC01ED9163
:104A7000FC910084F185E02D1995181619064CF368
:104A800075E0F72EEE24E394E2E3DE2EE3E7F2E0B6
:104A9000DE0117968F2D01900D928A95E1F7E09235
:104AA0004C0700E010E020E030E045E050E0BE01BF
:104AB000695F7F4F84E497E0A5D863E08091490760
:104AC00090914A070E94F2146AEF70E080E090E053
:104AD0000E94F71C6AE272E08091490790914A07B0
:104AE0000E9411166AEF70E080E090E00E94F71CCF
:104AF00068E272E08091490790914A070E9411167E
:104B000064EF71E080E090E00E94F71C6CE172E0DD
:104B10008091490790914A070E94111664EF71E055
:104B200080E090E00E94F71C84E497E003D8E8E777
:104B3000F2E0DE0111968F2D01900D928A95E1F73A
:104B4000D0924C0704E010E09E01245F3F4F45E007
:104B500050E0BE016F5F7F4F84E497E053D88F3FF2
:104B6000BFEF9B0739F468EE73E080E090E00E94AD
:104B7000F71C8CCF2C852111FFCF0497E9F42D85EC
:104B800030E02053310984E6829FA001839F500DBD
:104B900011242E8530E0205331096AE0629FC00164
:104BA000639F900D1124840F951F2F8530E02053B3
:104BB0003109820F931F02C084E690E0909346076C
:104BC0008093450782E380934C076EEB74E087EA9D
:104BD00096E00E94E01464EC79E080E090E00E94AE
:104BE000F71C84E080935305109236051092370528
:104BF000109238051092390510923A0510922E0540
:104C000010922F051092300510923105EBE3F5E07C
:104C100088E08E0F11928E13FDCFE7E4F5E088E077
:104C20008E0F11928E13FDCF8091E1051092E60553
:104C30001092E7051092E8051092E9058C7F8B7FB2
:104C40008093E10548EE53E060E070E04093E205B8
:104C50005093E3056093E4057093E5058091D805D2
:104C60001092DD051092DE051092DF051092E0052E
:104C70008C7F8B7F8093D8054093D9055093DA05BC
:104C80006093DB057093DC05A4EBB5E080E090E079
:104C900039E0389FF001399FF00D1124EC54FA4FA0
:104CA00020812E7F2B7F208315961D921D921D92B1
:104CB0001C92189720812D7F208311964D935D9330
:104CC0006D937C931497019619968430910509F79A
:104CD000ACE6B5E080E090E039E048EC50E060E020
:104CE00070E0389FF001399FF00D1124E459FA4F1C
:104CF00020812E7F2B7F208315961D921D921D9261
:104D00001C92189720812D7F208311964D935D93DF
:104D10006D937C931497FC01EC59FA4F20812C7F02
:104D20002B7F2083FC01E45AFA4F20812C7F2B7FBC
:104D30002083019619968830910599F680E090E0DD
:104D4000FC01E85AFA4F20812A7F2D7F2083FC0145
:104D5000EC5AFA4F20812A7F2D7F208301968430E0
:104D6000910571F761E086E10E949C1C61E086E29A
:104D70000E949C1C61E088E20E949C1C61E08AE227
:104D80000E949C1C61E08CE20E949C1C61E087E216
:104D90000E949C1C61E089E20E949C1C61E08BE205
:104DA0000E949C1C61E08DE20E949C1C61E08EE1EF
:104DB0000E949C1C61E08EE10E941F1C61E08FE15B
:104DC0000E949C1C61E08FE10E941F1C61E080E258
:104DD0000E949C1C61E080E20E941F1C61E081E255
:104DE0000E949C1C61E081E20E941F1C61E082E243
:104DF0000E949C1C61E083E20E949C1C0E940013A4
:104E00000E94001381E08093330688E68093550664
:104E1000109234061092560660E08FE497E00E94EC
:104E2000F11B0E94701181E090E00E943D128FE41E
:104E300097E00E94A61B87FF06C06EEC74E087EA2D
:104E400096E00E94E0140E9400130E9400130E944A
:104E500000130E94001362E0809196070E949C1C40
:104E600050E3C52E58EFD52EEE24EA94FE2CC092C6
:104E70009A07D0929B07E0929C07F0929D0762E010
:104E8000809184070E949C1CC0928807D092890759
:104E9000E0928A07F0928B0762E0809172070E948D
:104EA0009C1CC0927607D0927707E0927807F09228
:104EB000790762E0809160070E949C1CC0926407A1
:104EC000D0926507E0926607F092670783EC97E05F
:104ED0000E946E0687EB97E00E946E0683EC97E0D7
:104EE000E3DC87EB97E0E0DC60E083EC97E00E9496
:104EF000CD1167EA72E083EC97E00E94111661E041
:104F000083EC97E00E94CD1163E972E083EC97E0B7
:104F10000E94111662E083EC97E00E94CD116FE7CA
:104F200072E083EC97E00E94111663E083EC97E057
:104F30000E94CD116BE672E083EC97E00E9411169F
:104F400060E087EB97E00E94CD1167E572E087EBA8
:104F500097E00E94111661E087EB97E00E94CD1167
:104F600064E472E087EB97E00E94111662E087EB41
:104F700097E00E94CD1168E372E087EB97E00E9412
:104F8000111663E087EB97E00E94CD116CE272E0AE
:104F900087EB97E00E941116F5DAE8D90E941D19F7
:104FA00083EC97E081DC87EB97E07EDC0E944F1872
:104FB0000E9446160E94160A0E94D2090E94650BA2
:104FC0000E94BA0C0E942F1D60932E0870932F0828
:104FD00080933008909331080E942F1D609326081B
:104FE0007093270880932808909329087724739456
:104FF00069E0962E82E398E00E94980DB7D90E944E
:105000001D19C0902608D0902708E0902808F0903D
:105010002908E0E1CE0EE7E2DE1EE11CF11C0E9451
:105020002F1DC616D706E806F90668F4ABDA0E940B
:105030002F1D60932608709327088093280890936B
:1050400029080E944616C0902E05D0902F05E090AA
:105050003005F090310511E020E030E040EF51E400
:10506000C701B6010E945B3287FD10E08091E10527
:1050700010FB80F98093E10581EE95E00E946D0EB2
:1050800020E030E040ED51E4C701B601ABD7881F06
:105090008827881F9091D80580FB90F99093D805B8
:1050A00088ED95E00E946D0E8091E10582FF08C0B9
:1050B00080913605811104C0709236050E94D20994
:1050C0008091D80582FF08C080913605882321F0A1
:1050D000109236050E94D20938E4E32E35E0F32E13
:1050E00044EBC42E45E0D42E00E010E0909EF00189
:1050F000919EF00D1124EC54FA4FD70111972C9189
:1051000030E0D7018C91281B310937FF03C031955E
:105110002195310991E0253131050CF490E0808131
:1051200090FB80F98083C6010E946D0ED801A25DBC
:10513000BA4F909EF001919EF00D1124EC54FA4F5D
:10514000808182FB882780F991968C930F5F1F4F97
:10515000B2E0EB0EF11CE9E0CE0ED11C04301105DB
:1051600029F62CE6E22E25E0F22E00E010E0812C5C
:10517000909EF001919EF00D1124E459FA4F91E0B8
:10518000D801A25DBA4F1D968C91883008F090E04E
:10519000808190FB80F98083C7010E946D0E909EF4
:1051A000F001919EF00D1124E459FA4F808182FBA9
:1051B000882780F9F801EC59FA4F908180FB90F92B
:1051C0009B7F9083292F217091FB332730F9231780
:1051D00039F020FB91F9908390FD02C09460908398
:1051E000D801A45ABA4F9C9180FB90F99B7F9C9365
:1051F000892F817091FB222720F9821739F080FBDB
:1052000091F99C9391FF02C094609C93808182FDF0
:1052100003C08C9182FF02C0882483940F5F1F4FCC
:10522000F9E0EF0EF11C0830110509F0A1CFEE24D2
:10523000E394F12CAA24A394B12C66246A946E0CF6
:10524000870101501109650121E0C21AD1089C9C17
:10525000F0019D9CF00D1124E459FA4F808182FBEE
:10526000222720F982FF0CC09A9CF0019B9CF00D34
:105270001124E459FA4F808182FB882780F901C00C
:1052800080E0F801E85AFA4F908180FB90F99B7F0B
:105290009083892F817091FB332730F9831739F080
:1052A00080FB91F9908391FF02C094609083222348
:1052B00061F09A9CD0019B9CB00D1124A459BA4F67
:1052C0008C9182FB882780F901C080E00C5A1A4F2C
:1052D000D8019C9180FB90F99B7F9C93892F8170D2
:1052E00091FB222720F9821739F080FB91F99C93DA
:1052F00090FD02C094609C93808182FF11C061E0A8
:10530000862D0E94420C68EE72E087EA96E00E94C9
:105310001116C7010E94D21586ED92E00E94351643
:10532000F801808182FF11C060E0862D0E94420C4E
:105330006FEC72E087EA96E00E941116C7010E94A6
:10534000D2158BEB92E00E9435169C9CF0019D9C3F
:10535000F00D1124E459FA4F8081D701A25DBA4FB4
:1053600082FD0AC09A9CF0019B9CF00D1124E45927
:10537000FA4F808182FF03C054967C9202C05496FB
:105380001C92F2E0AF0EB11C2FEFE21AF20A89E094
:10539000A816B10409F051CF81100E94BA0C87ED14
:1053A00097E00E94980D61E086E10E941F1C109119
:1053B0003605612F82E20E941F1C612F83E20E944A
:1053C0001F1C60914F0586E20E941F1C60915005D2
:1053D00088E20E941F1C609151058AE20E941F1CF6
:1053E000609152058CE20E941F1C6091430587E288
:1053F0000E941F1C6091440589E20E941F1C60915D
:1054000045058BE20E941F1C609146058DE20E94BB
:105410001F1C80913705882311F060E001C061E016
:105420008EE10E941F1C80913805882311F060E0F6
:1054300001C061E08FE10E941F1C80913905882323
:1054400011F060E001C061E080E20E941F1C8091C9
:105450003A05882311F060E001C061E081E20E941A
:105460001F1CC0902E08D0902F08E0903008F090BC
:105470003108A8EECA0EA3E0DA1EE11CF11C0E945E
:105480002F1DC616D706E806F90660F40E942F1DE8
:1054900060932E0870932F08809330089093310802
:1054A0000E944F18C0902A08D0902B08E0902C083A
:1054B000F0902D08B0EDCB0EB7E0DB1EE11CF11C27
:1054C0000E942F1DC616D706E806F90660F40E9452
:1054D0002F1D60932A0870932B0880932C089093BB
:1054E0002D080E944616C0902208D0902308E09014
:1054F0002408F0902508E0ECCE0EE4EDDE1EE1E09D
:10550000EE1EF11C0E942F1DC616D706E806F906EE
:1055100090F462EE74E087EA96E00E94E0140E9444
:10552000160A0E942F1D609322087093230880930F
:10553000240890932508C0901E08D0901F08E09082
:105540002008F0902108F8E2CF0EF3E2DF1EE11C04
:10555000F11C0E942F1DC616D706E806F906E0F5D5
:105560000E942F1D60931E0870931F0880932008CF
:10557000909321086091D3077091D407611571054C
:1055800059F1CE0101960E947C140091D30710912D
:10559000D407D8011696ED90FC90179701151105C8
:1055A00031F0C8010E94F113C8010E940033F0924B
:1055B000D407E092D3078091D1079091D207019749
:1055C0009093D2078093D107CE0101960E94D40612
:1055D000CE0101960E94F1130E947E0F0BCDCF9356
:1055E000E7EAF6E01382128248EE53E060E070E0F2
:1055F000448355836683778389E892E0918380832F
:1056000085EC90E09587848784EC90E09787868787
:1056100080EC90E0918B808B81EC90E0938B828B7F
:1056200082EC90E0958B848B86EC90E0978B868B58
:10563000118E128E138E148EA4E4B7E01C9216966F
:10564000FC93EE93159717961C92179718961C9239
:1056500018971A96FC93EE931997EFE4F7E01382EC
:10566000128244835583668377838BE992E091832A
:105670008083E3ECF7E0138212824FEB52E0518318
:1056800040838FE3848324E1208794E0918712860E
:1056900088E08387E7EBF7E013821282518340832F
:1056A00037E234832087918712868387E2EBF7E025
:1056B00098E490831482138281831282EDEAF7E0EA
:1056C0001482138299E4908381831282E8EAF7E0DE
:1056D000148213829BE4908381831282E3EAF7E0D1
:1056E000148213829AE4908381831282A1E9B7E045
:1056F00088E115968C93159786E116968C931697EC
:10570000EFE8F4E0E4911796EC931797E9E4F4E0FE
:10571000E4911896EC93189740E85EE360E070E03F
:105720001D964D935D936D937C935097AFE7B7E0D3
:105730009AE115969C93159716968C931697E1E926
:10574000F4E0E4911796EC931797EBE4F4E0E4911E
:105750001896EC9318971D964D935D936D937C93DB
:105760005097ADE6B7E09BE115969C93159716967A
:105770008C931697E2E9F4E0E4911796EC9317976F
:10578000ECE4F4E0E4911896EC9318971D964D9391
:105790005D936D937C935097ABE5B7E09CE11596D4
:1057A0009C93159716968C931697E3E9F4E0E49191
:1057B0001796EC931797EDE4F4E0E4911896EC93C8
:1057C00018971D964D935D936D937C935097EFECD6
:1057D000F7E01382128215821482178216821182D8
:1057E0001082E9E4F8E0118210821382128215829D
:1057F0001482A3E4B8E011961C921E9213961C9298
:105800001E92129715961C921E921497ADE3B8E063
:1058100011961C921E9213961C921E921297159628
:105820001C921E921497A2E3B8E0C1E0CC931696A6
:10583000FC93EE9315971496FC93EE9313971296A0
:10584000FC93EE93119717961D921D921D921C9238
:105850001A970E942F1D60932E0870932F08809333
:105860003008909331080E942F1D60932A0870938E
:105870002B0880932C0890932D080E942F1D609375
:1058800026087093270880932808909329080E947F
:105890002F1D60932208709323088093240890930F
:1058A00025080E942F1D60931E0870931F08809387
:1058B000200890932108E8E1F8E08BE39CE09183D5
:1058C000808387EF95E09383828315821482A2E11F
:1058D000B8E083E39CE011969C938E938AE995E06F
:1058E00013969C938E93129715961C921E92149762
:1058F000ACE0B8E08BE29CE011969C938E938DE334
:1059000095E013969C938E93129715961C921E9277
:105910001497A6E0B8E083E29CE011969C938E93E6
:1059200080EE94E013969C938E93129715961C929A
:105930001E921497A0E0B8E08BE19CE011969C9336
:105940008E9381EB94E013969C938E931297159609
:105950001C921E921497AAEFB7E083E19CE0119687
:105960009C938E9384E594E013969C938E93129768
:1059700015961C921E921497A4EFB7E08BE09CE062
:1059800011969C938E9387EF93E013969C938E933E
:10599000129715961C921E921497AEEEB7E083E014
:1059A0009CE011969C938E938AE993E013969C93C6
:1059B0008E93129715961C921E921497A8EEB7E03C
:1059C0008BEF9BE011969C938E938BE693E013965E
:1059D0009C938E93129715961C921E921497A2EE8A
:1059E000B7E084EF9BE011969C938E938EE293E058
:1059F00013969C938E93129715961C921E92149751
:105A0000A7EDB7E0CC931696FC93EE9315971496FA
:105A1000FC93EE9313971296FC93EE9311971796BF
:105A20001D921D921D921C921A97CF910895EF928C
:105A30000F931F93CF93DF93E80147FD02C034E03B
:105A400001C034E1E42F440FFF0BF7FF03C0F195D1
:105A5000E195F109E32E022F2E2FAE014ED0CE019B
:105A6000DF91CF911F910F91EF900895FB01DC0121
:105A700005900D920020E1F70895FC0105900020AB
:105A8000E9F7809590958E0F9F1F08954532510537
:105A900018F4423008F004C0FB011082CB010895D5
:105AA000BB274A3031F4992322F4BDE290958195C9
:105AB0009F4F0BC04532510518F4423008F004C026
:105AC000FB011082CB010895BB27FB015527AA27B4
:105AD000880F991FAA1FA41710F0A41B839550517B
