:1000000094C20000C3C20000C1C20000BFC2000011
:10001000BDC20000BBC20000B9C20000B7C20000F0
:10002000B5C20000B3C20000B1C20000AFC2000000
:10003000ADC20000ABC20000A9C20000A7C2000010
:10004000A5C20000A3C20000A1C200009FC2000020
:100050009DC200009BC2000099C200000C94E20BFC
:1000600095C200000C949D0A0C94740A8FC2000083
:100070008DC200008BC2000089C2000087C2000050
:1000800085C2000083C2000081C200007FC2000060
:100090007DC200007BC2000079C200000C94531C9A
:1000A00075C2000073C2000071C200006FC2000080
:1000B0006DC200006BC2000069C2000067C2000090
:1000C00065C2000063C2000061C200005FC20000A0
:1000D0005DC200005BC200000C944B0A0C94220A23
:1000E00055C20000F50AF80AE70AEB0AEF0A2F0BDF
:1000F000FC0A000B060B0A0B0E0B140B180B1C0B47
:100100002F0B220B260B2A0B00407A10F35A00A06B
:10011000724E18090010A5D4E80000E876481700D0
:1001200000E40B54020000CA9A3B000000E1F50510
:10013000000080969800000040420F000000A0865A
:1001400001000000102700000000E803000000008C
:100150006400000000000A00000000000100000030
:1001600000002C76D888DC674F0823DFC1DFAE594A
:10017000E1B1B796E5E3E453C63AE651997696E8DD
:10018000E6C28426EB898C9B62ED407C6FFCEFBC61
:100190009C9F40F2BAA56FA5F490055A2AF75C938C
:1001A0006B6CF9676DC11BFCE0E40D47FEF520E6C2
:1001B000B500D0ED902E0300943577050080841EA5
:1001C000080000204E0A000000C80C333333330F00
:1001D000986E12831141EF8D2114893BE65516CF9D
:1001E000FEE6DB18D1844B381BF77C1D901DA4BBA9
:1001F000E424203284725E228100C9F124ECA1E55E
:100200003D2772756E2D6272696467650A000A0087
:100210000A00202020202020202020202000202034
:100220002020202020202020200020202020465296
:10023000455348434152474F54202020002020205E
:1002400020202020202020202020202020202020AE
:10025000002020204259204B494552414E20323047
:1002600031372020002020202053595354454D2061
:1002700056312E30202020200020475245454E4840
:100280004F55534520434F4E54524F4C0020202091
:10029000202020202020202020202020202020205E
:1002A00000204661696C6564210046656E636520C7
:1002B00000252E003474682068756D6920697320EC
:1002C00000432E003474682074656D7020697320BB
:1002D00000252E003372642068756D6920697320D3
:1002E00000432E003372642074656D7020697320A2
:1002F00000252E00326E642068756D6920697320B8
:1003000000432E00326E642074656D702069732086
:1003100000252E003173742068756D692069732083
:1003200000432E003173742074656D702069732052
:1003300000492077696C6C20676574206461746182
:100340002066726F6D2044485432322073656E739C
:100350006F72732100475245454E484F5553453102
:10036000200030003A0030003A00300056200020D3
:100370000056205A4E4534423D002000205A4E453A
:1003800034413D00562000200056205A4E4533424D
:100390003D002000205A4E4533413D0056200020AC
:1003A0000056205A4E4532423D002000205A4E450C
:1003B00032413D00562000200056205A4E45314221
:1003C0003D002000205A4E4531413D004320004F62
:1003D0002000533320004320004F200053322000E0
:1003E0004320004F2000533120004320004F2000C5
:1003F0005330200048554D49444954593D00544517
:100400004D503D2020202000000020002300260029
:1004100029002C002F00320000010000030106011A
:10042000090100002100240027002A002D003000CF
:10043000330001010000040107010A01000022004D
:10044000250028002B002E0031003400020100009E
:10045000050108010B0100000A0B02090C0D0E0832
:10046000070304010000000000000000000000007D
:10047000000000000000000000000000000000007C
:100480000000121110000000000000000000000039
:100490000000000000000000000000000505050548
:1004A000070508080808020202020A0A08080404EC
:1004B000040401010101010101010303030303031A
:1004C0000303040707070C0C0C0C0C0C0C0C0202A9
:1004D000020206060606060606060B0B0B0B0B0BA6
:1004E0000B0B010210202008081020401020408033
:1004F00002010201080402010102040810204080E8
:100500008040201008040201800402018040201075
:1005100008040201080402010102040810204080BE
:100520000102040810204080962A11241FBECFEF3C
:10053000D1E2DEBFCDBF00E00CBF15E0A0E0B2E02D
:10054000EAEDFDE600E00BBF02C007900D92A0307F
:10055000B107D9F728E0A0E0B5E001C01D92A738A7
:10056000B207E1F712E0C5E9D2E000E006C021974A
:100570000109802FFE010E94F531C439D10780E0C6
:100580000807A9F70E9493200C94EB3639CDCF923F
:10059000DF92EF92FF92CF93DF9386E30E947F0B6F
:1005A000C0E0D5E09C01A2E3B0E00E94E530DC01B0
:1005B000CB012AE0B595A795979587952A95D1F710
:1005C0009C01AD012550310941095109A4E6B0E073
:1005D0000E94B93038E2C32ED12CE12CF12CA701B6
:1005E00096010E949D30298F87E30E947F0B9C011A
:1005F000A2E3B0E00E94E530DC01CB014AE0B59512
:10060000A795979587954A95D1F79C01AD012550FF
:10061000310941095109A4E6B0E00E94B930A701AF
:1006200096010E949D302A8F88E30E947F0B9C01D7
:10063000A2E3B0E00E94E530DC01CB015AE0B595C1
:10064000A795979587955A95D1F79C01AD012550AF
:10065000310941095109A4E6B0E00E94B930A7016F
:1006600096010E949D302B8F89E30E947F0B9C0195
:10067000A2E3B0E00E94E530DC01CB016AE0B59571
:10068000A795979587956A95D1F79C01AD0125505F
:10069000310941095109A4E6B0E00E94B930A7012F
:1006A00096010E949D302C8F8AE30E947F0B9C0153
:1006B000A2E3B0E00E94E530DC01CB017AE0B59521
:1006C000A795979587957A95D1F79C01AD0125500F
:1006D000310941095109A4E6B0E00E94B930A701EF
:1006E00096010E949D302D8F8BE30E947F0B9C0111
:1006F000A2E3B0E00E94E530DC01CB01EAE0B59571
:10070000A79597958795EA95D1F79C01AD0125505E
:10071000310941095109A4E6B0E00E94B930A701AE
:1007200096010E949D302E8F8CE3E9D79C01A2E3B5
:10073000B0E00E94E530DC01CB01FAE0B595A79569
:1007400097958795FA95D1F79C01AD012550310910
:1007500041095109A4E6B0E00E94B930A701960111
:100760000E949D302F8F8DE3CAD79C01A2E3B0E099
:100770000E94E530DC01CB012AE0B595A79597955D
:1007800087952A95D1F79C01AD0125503109410982
:100790005109A4E6B0E00E94B930A70196010E9479
:1007A0009D3028A3DF91CF91FF90EF90DF90CF9005
:1007B00008950F931F93CF93DF93CDB7DEB72C9798
:1007C0000FB6F894DEBF0FBECDBF6CEE72E0CE0167
:1007D00001960E94E91F61E573E0CE0101960E9437
:1007E000AF1A00E015E0F801618570E04AE0CE0143
:1007F00007960E94411BBE01695F7F4FCE010196A3
:100800000E94BD1ACE0107960E940D1B66E573E09B
:10081000CE0101960E94AF1AF801628570E04AE0AD
:10082000CE0107960E94411BBE01695F7F4FCE013A
:1008300001960E94BD1ACE0107960E940D1B6BE522
:1008400073E0CE0101960E94AF1AF801638570E053
:100850004AE0CE0107960E94411BBE01695F7F4FAF
:10086000CE0101960E94BD1ACE0107960E940D1B73
:1008700060E673E0CE0101960E94AF1AF80164852C
:1008800070E04AE0CE0107960E94411BBE01695FFD
:100890007F4FCE0101960E94BD1ACE0107960E949D
:1008A0000D1BBE016F5F7F4FCE0107960E94D01FC8
:1008B000CE0107960E945B12CE0107960E940D1B87
:1008C000CE0101960E940D1B2C960FB6F894DEBF48
:1008D0000FBECDBFDF91CF911F910F910895CF92A1
:1008E000DF92EF92FF92CF93DF93CDB7DEB762979F
:1008F0000FB6F894DEBF0FBECDBF61E087E697E08C
:100900000E94BC196EEF73E087E697E00E94122008
:100910006CEE72E0CE0107960E94E91FC0900005C0
:10092000D0900105E0900205F090030520E030E052
:10093000A901C701B6010E94ED3187FD10C020E07A
:1009400030E040E251E4C701B6010E94842F87FFE6
:1009500006C066EC73E0CE0107960E94AF1A409184
:10096000000550910105609102057091030520E09A
:10097000CE0101960E94121BBE016F5F7F4FCE0118
:1009800007960E94BD1ACE0101960E940D1BBE0162
:10099000695F7F4F87E697E00E9404206FED87E64E
:1009A00097E00E94FD1F62EC73E087E697E00E94EB
:1009B000362062E087E697E00E94BC1964EF73E09E
:1009C00087E697E00E9412206CEE72E0CE0101965D
:1009D0000E94E91F20E030E040E251E4609104050C
:1009E0007091050580910605909107050E94842F5E
:1009F00087FF06C066EC73E0CE0101960E94AF1A35
:100A00004091040550910505609106057091070518
:100A100020E0CE010D960E94121BBE01635F7F4F46
:100A2000CE0101960E94BD1ACE010D960E940D1BAB
:100A3000BE016F5F7F4F87E697E00E94042068EC5D
:100A400073E087E697E00E943620809108058823AE
:100A500019F06FEC73E002C063ED73E087E697E096
:100A60000E94362063E087E697E00E94BC1960EFA1
:100A700073E087E697E00E941220809109058823A1
:100A800019F06DEE73E002C06AEE73E087E697E05E
:100A90000E94122066EE73E087E697E00E94122023
:100AA00080910A05882319F063EE73E002C060EEBE
:100AB00073E087E697E00E9412206CED73E087E612
:100AC00097E00E94122080910B05882319F069EDB0
:100AD00073E002C066ED73E087E697E00E941220A3
:100AE00062ED73E087E697E00E94122080910C058A
:100AF000882319F06FEC73E002C06CEC73E087E6BA
:100B000097E00E94122060E08BE597E00E94BC19FC
:100B100064EC73E08BE597E00E94122080910D0554
:100B20008A3030F462EC73E08BE597E00E9412208B
:100B300040910D0550E060E070E02AE08BE597E021
:100B40000E944B2069EB73E08BE597E00E94122036
:100B500080910E058A3030F467EB73E08BE597E007
:100B60000E94122040910E0550E060E070E02AE003
:100B70008BE597E00E944B2064EB73E08BE597E0F8
:100B80000E94122061E08BE597E00E94BC196CEA9C
:100B900073E08BE597E00E94122080910F058A3068
:100BA00030F46AEA73E08BE597E00E9412204091EE
:100BB0000F0550E060E070E02AE08BE597E00E94CE
:100BC0004B2061EA73E08BE597E00E941220809150
:100BD00010058A3030F46FE973E08BE597E00E94EE
:100BE00012204091100550E060E070E02AE08BE5B3
:100BF00097E00E944B206CE973E08BE597E00E9440
:100C0000122062E08BE597E00E94BC1964E973E072
:100C10008BE597E00E941220809111058A3030F414
:100C200062E973E08BE597E00E9412204091110584
:100C300050E060E070E02AE08BE597E00E944B20F6
:100C400069E873E08BE597E00E941220809112051D
:100C50008A3030F467E873E08BE597E00E94122059
:100C60004091120550E060E070E02AE08BE597E0EB
:100C70000E944B2064E873E08BE597E00E9412200D
:100C800063E08BE597E00E94BC196CE773E08BE5AD
:100C900097E00E941220809113058A3030F46AE7B1
:100CA00073E08BE597E00E9412204091130550E01D
:100CB00060E070E02AE08BE597E00E944B2061E75E
:100CC00073E08BE597E00E941220809114058A3032
:100CD00030F46FE673E08BE597E00E9412204091BC
:100CE000140550E060E070E02AE08BE597E00E9498
:100CF0004B206CE673E08BE597E00E941220CE015A
:100D000001960E940D1BCE0107960E940D1B629654
:100D10000FB6F894DEBF0FBECDBFDF91CF91FF902D
:100D2000EF90DF90CF900895FF920F931F93CF9392
:100D3000DF93CDB7DEB72C970FB6F894DEBF0FBEAA
:100D4000CDBF81E08093180888E680933A0810921E
:100D5000190810923B0860E08AEF96E00E94251C7B
:100D60000E945F1987E090E00E942C1A8AEF96E0BB
:100D70000E94DA1B8F77982F92959F702AEFF22EA0
:100D8000182F9F9D100D11248AEF96E00E94DA1B08
:100D90009C01332744E0359527954A95E1F7082FC4
:100DA000F29E000D11248AEF96E00E94DA1B9C014E
:100DB000332754E0359527955A95E1F7482FF29E51
:100DC000400D1124F42E8AEF96E00E94DA1B8AEF80
:100DD00096E00E94DA1B8AEF96E00E94DA1B8AEF07
:100DE00096E00E94DA1B6CEE72E0CE0101960E9442
:100DF000E91F89E08F1530F06AE673E0CE010196B5
:100E00000E94801A4AE06F2DCE0107960E946C1B4B
:100E1000BE01695F7F4FCE0101960E94BD1ACE01CF
:100E200007960E940D1B68E673E0CE0101960E94B2
:100E3000801A0A3030F466E673E0CE0101960E9413
:100E4000801A4AE0602FCE0107960E946C1BBE01FB
:100E5000695F7F4FCE0101960E94BD1ACE010796B1
:100E60000E940D1B64E673E0CE0101960E94801A79
:100E70001A3030F462E673E0CE0101960E94801AC7
:100E80004AE0612FCE0107960E946C1BBE01695F8C
:100E90007F4FCE0101960E94BD1ACE0107960E9497
:100EA0000D1B60E087E697E00E94BC1965E573E0E2
:100EB00087E697E00E941220BE016F5F7F4F87E6B2
:100EC00097E00E940420CE0101960E944E19CE01A7
:100ED00001960E940D1B2C960FB6F894DEBF0FBE34
:100EE000CDBFDF91CF911F910F91FF9008954F9249
:100EF0005F926F927F928F929F92AF92BF92CF92AA
:100F0000DF92EF92FF92CF93DF9381E393E00E9411
:100F1000441864E273E085EB95E00E9412208DEBAB
:100F200097E00E9401190E94551881E293E00E9407
:100F300044188BEA97E00E94011920E030E0A901F3
:100F40000E94F5304B015C0164E173E085EB95E0B4
:100F50000E9412208DEB97E00E94FF170E94551807
:100F600081E193E00E9444188DEB97E00E94FF1707
:100F700020E030E0A9010E94F5306B017C0164E0C3
:100F800073E085EB95E00E9412208BEA97E00E94C7
:100F900001190E94551881E093E00E9444188BEAE1
:100FA00097E00E9401199B01AC01C501B4010E94A8
:100FB000F5304B015C0164EF72E085EB95E00E9437
:100FC00012208BEA97E00E94FF170E94551881EFCC
:100FD00092E00E9444188BEA97E00E94FF179B0161
:100FE000AC01C701B6010E94F5306B017C0164EED3
:100FF00072E085EB95E00E94122089E997E00E945B
:1010000001190E94551881EE92E00E94441889E966
:1010100097E00E9401199B01AC01C501B4010E9437
:10102000F5304B015C0164ED72E085EB95E00E94C8
:10103000122089E997E00E94FF170E94551881ED60
:1010400092E00E94441889E997E00E94FF179B01F3
:10105000AC01C701B6010E94F5306B017C0164EC64
:1010600072E085EB95E00E94122087E897E00E94ED
:1010700001190E94551881EC92E00E94441887E8FB
:1010800097E00E9401199B01AC01C501B4010E94C7
:10109000F5302B013C0164EB72E085EB95E00E949A
:1010A000122087E897E00E94FF170E94551881EBF5
:1010B00092E00E94441887E897E00E94FF174B01D6
:1010C0005C01C0E0D5E020E030E040E85EE3C30131
:1010D000B2010E94E92F688379838A839B83A501EB
:1010E0009401C701B6010E94F53020E030E040E8ED
:1010F0005EE30E94E92F6C837D838E839F83DF9163
:10110000CF91FF90EF90DF90CF90BF90AF909F90E6
:101110008F907F906F905F904F900895FC01A08911
:10112000B1898C91A689B78982FD0FC09C91818D70
:101130008F5F8F73228D821749F0218DDF01A20FFF
:10114000B11D5D969C93818F08958C910895FC014B
:10115000918D828D981761F0828DDF01A80FB11DEE
:101160005D968C91928D9F5F9F73928F90E0089512
:101170008FEF9FEF0895FC01918D828D981731F0CC
:10118000828DE80FF11D858D90E008958FEF9FEF20
:101190000895FC01918D228D892F90E0805C9F4FF6
:1011A000821B91098F739927089582E596E0F1DFFC
:1011B00021E0892B09F420E0822F089585EB95E04A
:1011C000E8DF21E0892B09F420E0822F0895FC015B
:1011D000848DDF01A80FB11DA35ABF4F2C91848DC0
:1011E00090E001968F739927848FA689B7892C93F5
:1011F000A089B1898C9180648C93938D848D981390
:1012000006C00288F389E02D80818F7D8083089558
:10121000EF92FF920F931F93CF93DF93EC0181E046
:10122000888F9B8D8C8D981305C0E889F989808102
:1012300085FD23C0F62E0B8D10E00F5F1F4F0F733F
:101240001127E02E8C8DE8120BC00FB607FCFACFE9
:10125000E889F989808185FFF5CFCE01B8DFF2CF2B
:101260008B8DFE01E80FF11DE35AFF4FF0820B8FCB
:10127000EA89FB898081806207C0EE89FF896083EB
:10128000E889F98980818064808381E090E0DF9142
:10129000CF911F910F91FF90EF900895CF93DF931F
:1012A000EC01888D8823C1F0EA89FB89808185FD66
:1012B00005C0A889B9898C9186FD0EC00FB607FCC0
:1012C000F5CF808185FFF2CFA889B9898C9185FF00
:1012D000EDCFCE017CDFE8CFDF91CF91089580E0A4
:1012E00090E0892B19F06ADF811120C080E090E046
:1012F000892B41F080E090E0892B21F00E940000D2
:10130000811117C080E090E0892B41F080E090E0EF
:10131000892B21F00E94000081110EC080E090E036
:10132000892B79F042DF81110AC008950E940000E4
:10133000DDCF0E940000E6CF0E940000EFCF0C94AA
:10134000000008953FB7F8948091B1059091B205DF
:10135000A091B305B091B40526B5A89B05C02F3F59
:1013600019F00196A11DB11D3FBFBA2FA92F982FCB
:101370008827820F911DA11DB11DBC01CD0142E046
:10138000660F771F881F991F4A95D1F70895089512
:101390000E940E34FC01248131E030931808209320
:1013A0003A081092190810923B088385682B8AEF3F
:1013B00096E00E94251C0C945F190F931F93CF9306
:1013C0008C01C62FE7DF6C2F6460C801E3DF6C2F50
:1013D0006B7FC801DFDF83EC90E00197F1F7CF91DD
:1013E0001F910F9108951F93CF93DF93182F81E0E2
:1013F0008093180810933A081092190810923B082D
:1014000060E08AEF96E00E94251C0E945F1962E06E
:10141000812F0E94E8191092D0078093CF078AEF9E
:1014200096E00E94DA1B182F8AEF96E00E94DA1BE2
:10143000D12F20E0C22F9E01282BC901DF91CF912F
:101440001F9108951F920F920FB60F9211240BB6A1
:101450000F922F933F934F935F936F937F938F934D
:101460009F93AF93BF93EF93FF9382E596E0AFDE38
:10147000FF91EF91BF91AF919F918F917F916F916C
:101480005F914F913F912F910F900BBE0F900FBE28
:101490000F901F9018951F920F920FB60F92112464
:1014A0000BB60F922F933F934F935F936F937F935E
:1014B0008F939F93AF93BF93EF93FF9382E596E053
:1014C0002DDEFF91EF91BF91AF919F918F917F9111
:1014D0006F915F914F913F912F910F900BBE0F90A5
:1014E0000FBE0F901F9018951F920F920FB60F927C
:1014F00011240BB60F922F933F934F935F936F93EB
:101500007F938F939F93AF93BF93EF93FF9385EB5D
:1015100095E05DDEFF91EF91BF91AF919F918F912B
:101520007F916F915F914F913F912F910F900BBEE3
:101530000F900FBE0F901F9018951F920F920FB62D
:101540000F9211240BB60F922F933F934F935F93FB
:101550006F937F938F939F93AF93BF93EF93FF937B
:1015600085EB95E0DBDDFF91EF91BF91AF919F910E
:101570008F917F916F915F914F913F912F910F903C
:101580000BBE0F900FBE0F901F901895362F90E056
:10159000FC01EA5AFB4F4491FC01EE51FB4F2491B0
:1015A000FC01E456FB4F9491992309F46BC044234A
:1015B00009F455C050E0FA013197E231F10508F025
:1015C0004EC08827EE58FF4F8F4F0C94F531809115
:1015D00080008F7707C0809180008F7D03C080914D
:1015E0008000877F809380003AC084B58F7702C0E7
:1015F00084B58F7D84BD33C08091B0008F7703C0E8
:101600008091B0008F7D8093B00029C080919000C0
:101610008F7707C0809190008F7D03C080919000EC
:10162000877F809390001BC08091A0008F7707C0B8
:101630008091A0008F7D03C08091A000877F809360
:10164000A0000DC0809120018F7707C080912001FC
:101650008F7D03C080912001877F80932001E92F37
:10166000F0E0EE0FFF1FE45CFB4FA591B4918FB744
:10167000F894EC91311103C020952E2301C02E2B3C
:101680002C938FBF0895CF93DF9390E0FC01EE5130
:10169000FB4F2491FC01E456FB4F8491882361F1B8
:1016A00090E0880F991FFC01EE5DFB4FC591D4912E
:1016B000FC01E45CFB4FA591B491611109C09FB797
:1016C000F8948881209582238883EC912E230BC087
:1016D000623061F49FB7F8943881822F809583231C
:1016E0008883EC912E2B2C939FBF06C08FB7F89464
:1016F000E8812E2B28838FBFDF91CF910895863309
:1017000008F0865390917B00282F2870977F922BAA
:1017100090937B008770806480937C0080917A0036
:10172000806480937A0080917A0086FDFCCF80915E
:1017300078002091790090E0922B08958F929F92EB
:10174000AF92BF92CF92DF92EF92FF926B017C013A
:10175000F9DD4B015C01C114D104E104F104E9F0AD
:10176000F1DDDC01CB0188199909AA09BB09883E82
:101770009340A105B10578F321E0C21AD108E10830
:10178000F10888EE880E83E0981EA11CB11CC114DC
:10179000D104E104F10421F7DECFFF90EF90DF9058
:1017A000CF90BF90AF909F908F9008952FB7F894EF
:1017B0006091AD057091AE058091AF059091B00537
:1017C0002FBF08951F920F920FB60F9211242F93DF
:1017D0003F938F939F93AF93BF938091AD0590916B
:1017E000AE05A091AF05B091B0053091AC0523E0F6
:1017F000230F2D3720F40196A11DB11D05C026E849
:10180000230F0296A11DB11D2093AC058093AD0559
:101810009093AE05A093AF05B093B0058091B1054C
:101820009091B205A091B305B091B4050196A11DA8
:10183000B11D8093B1059093B205A093B305B09309
:10184000B405BF91AF919F918F913F912F910F90D0
:101850000FBE0F901F9018958F929F92AF92BF92DC
:10186000CF92DF92EF92FF920F931F93CF93DC0101
:101870001796CC911797662311F08C2F01C080E04A
:1018800018962C91189730E0220F331F285F3B4F9A
:1018900040E050E0BA01F90105911491F8019081FE
:1018A0009C23981315C06A017B019FEFC91AD90ABE
:1018B000E90AF90A1D968D909D90AD90BC905097C5
:1018C000481559056A057B0538F4B701A601E3CF31
:1018D000342F252FCB0104C030E020E080E090E0E1
:1018E000632F722FCF911F910F91FF90EF90DF9098
:1018F000CF90BF90AF909F908F9008950F931F93BC
:10190000CF93DF93EC018B0167ED73E08F859889AE
:101910000E94AF1AB8018F859889DF91CF911F91EE
:101920000F910C94BD1ACF93DF93EC018D819E81B2
:10193000DC01ED91FC910480F581E02D19951816DC
:10194000190654F48D819E81DC01ED91FC91068095
:10195000F781E02D1995EACFDF91CF9108958F920D
:101960009F92AF92BF92CF92DF92EF92FF92CF936E
:10197000DF93EC016B011ADF4B015C01E12CF12CD0
:101980008D819E81DC01ED91FC910680F781E02D37
:10199000199597FF0EC00ADFDC01CB018819990960
:1019A000AA09BB098C159D05AE05BF0548F38FEF4D
:1019B0009FEFDF91CF91FF90EF90DF90CF90BF909E
:1019C000AF909F908F900895FC012381348126274A
:1019D000022E2295207F2025032E322F22952F7054
:1019E0000226269532272327220F220F220F202599
:1019F000348323830895CF92DF92EF92FF920F9367
:101A00001F936801790100E010E020E030E00E94BF
:101A10002B151F910F91FF90EF90DF90CF900895BD
:101A20000F931F93CF93DF9300D0CDB7DEB729E498
:101A30002983FC0126852A836B8300E010E020E0E7
:101A400030E043E050E0BE016F5F7F4F84859585B5
:101A5000D2DF81E090E00F900F900F90DF91CF9157
:101A60001F910F910895EF92FF920F931F93CF93C1
:101A7000DF931F921F92CDB7DEB77C01FC018189F5
:101A8000882381F087E7898386858A8300E010E0D8
:101A900020E030E042E050E0BE016F5F7F4F848580
:101AA0009585A9DFF701118A0F900F90DF91CF91F3
:101AB0001F910F91FF90EF900895EF92FF920F9377
:101AC0001F93CF93DF9300D0CDB7DEB7FC012289FF
:101AD000211117C07C01138A8FE4898380E48B83F2
:101AE00086858A839F012C5E3F4F00E410E043E02F
:101AF00050E0BE016F5F7F4F848595857CDFF701E5
:101B0000828B0F900F900F90DF91CF911F910F91CB
:101B1000FF90EF900895CF93DF93EC01CEDF8A8999
:101B2000882331F08B89C80FD11D8C8990E002C0C9
:101B30008FEF9FEFDF91CF910895CF93DF93EC016B
:101B4000BCDF8A89882359F081508A8B8B8991E088
:101B5000980F9B8BC80FD11D8C8990E002C08FEF2E
:101B60009FEFDF91CF910895CF93DF93EC01A5DF35
:101B70008A8990E0DF91CF910895FF920F931F9390
:101B8000CF93DF931F92CDB7DEB78C01F62E962F41
:101B9000907F692F642BC80149830FDC80E1F89E98
:101BA000B00111244981642BC8010F90DF91CF91BE
:101BB0001F910F91FF9001CC41E0DFDF81E090E0C9
:101BC000089540E061E0D9DF8BE39FE10197F1F7F1
:101BD00008950F931F93CF93DF93EC010E945A1A3D
:101BE0001D828985823010F098E09D839A85992323
:101BF00029F0813019F48D8184608D8362E370E077
:101C000080E090E09BDD6B85CE01C4DB68EE73E085
:101C100080E090E093DD60E3CE01CFDB0BE416E4DF
:101C2000C8010197F1F760E3CE01C7DBC801019756
:101C3000F1F760E3CE01C1DB83E592E00197F1F7B4
:101C400060E2CE01BADB6D81606240E0CE0195DFDB
:101C500084E08E8340E06CE0CE018FDFCE01B1DF07
:101C600082E08F8340E066E0CE0187DF40E062E003
:101C7000CE0183DF8BE39FE10197F1F7DF91CF91F5
:101C80001F910F910895CF93DF93EC016B817C81BD
:101C90006368716B88810E94371A698170E080E007
:101CA00090E04CDD88819FDB2A81022E02C0969550
:101CB00087950A94E2F7222329F0811528E09207FC
:101CC00008F0906FDF91CF910895CF93DF93EC01EF
:101CD0006B817C816368716888810E94371A698191
:101CE00070E080E090E02ADD88817DDB2A81022E91
:101CF00002C0969587950A94E2F7222329F0811570
:101D000028E0920708F0906FDF91CF91089510922C
:101D1000090510920A0510920B0510920C0584E03B
:101D20008093250585D66133754781059105A8F116
:101D300020E030E04CE852E4609104057091050524
:101D400080910605909107050E94842F87FF03C0AC
:101D50008FE397E015C020E030E040ED51E4609162
:101D600000057091010580910205909103050E9484
:101D7000ED3118161CF487E297E002C085E497E085
:101D800090930A078093090711DD60930B07709306
:101D90000C0780930D0790930E07089584E08093BD
:101DA000250520E030E040ED51E4609100057091A0
:101DB000010580910205909103050E94842F181659
:101DC00084F020E030E04CE852E46091040570912A
:101DD000050580910605909107050E94ED3187FF6A
:101DE00006C026D6613177428105910578F08FE0F3
:101DF00097E090930A0780930907D8DC60930B075C
:101E000070930C0780930D0790930E070895CF925F
:101E1000DF92EF92FF9283E08093250520E030E08F
:101E200040ED51E46091000570910105809102053B
:101E3000909103050E94842F18169CF020E030E05A
:101E40004CE852E460910405709105058091060507
:101E5000909107050E94ED3187FD03C085E497E06E
:101E600027C0E6D5693873418105910570F1C090AE
:101E70000405D0900505E0900605F090070520E0E8
:101E800030E04CE852E4C701B6010E94842F87FF7E
:101E900003C08DE297E00CC020E030E040ED51E45B
:101EA000C701B6010E94ED3118167CF485E197E078
:101EB00090930A078093090779DC60930B0770936E
:101EC0000C0780930D0790930E07FF90EF90DF9023
:101ED000CF900895CF92DF92EF92FF9282E08093AD
:101EE000250520E030E040ED51E46091000570915F
:101EF000010580910205909103050E94842F181618
:101F00009CF020E030E04CE852E4609104057091D0
:101F1000050580910605909107050E94ED3187FD2A
:101F200003C085E497E027C083D5693873418105F4
:101F3000910570F1C0900405D0900505E09006056C
:101F4000F090070520E030E04CE852E4C701B6010C
:101F50000E94842F87FF03C083E397E00CC020E03A
:101F600030E040ED51E4C701B6010E94ED31181692
:101F70007CF48BE197E090930A078093090716DCC5
:101F800060930B0770930C0780930D0790930E07D7
:101F9000FF90EF90DF90CF900895CF92DF92EF9275
:101FA000FF9281E08093250520E030E040ED51E490
:101FB00060910005709101058091020590910305E3
:101FC0000E94842F18169CF020E030E04CE852E488
:101FD00060910405709105058091060590910705B3
:101FE0000E94ED3187FD03C085E497E027C020D52E
:101FF000693873418105910570F1C0900405D09056
:102000000505E0900605F090070520E030E04CE87B
:1020100052E4C701B6010E94842F87FF03C089E301
:1020200097E00CC020E030E040ED51E4C701B6017C
:102030000E94ED3118167CF481E297E090930A0734
:1020400080930907B3DB60930B0770930C078093B1
:102050000D0790930E07FF90EF90DF90CF900895BB
:1020600084E08093250520E030E040ED51E460916C
:1020700000057091010580910205909103050E9471
:10208000842F181684F020E030E04CE852E4609190
:1020900004057091050580910605909107050E9441
:1020A000ED3187FF06C0C4D46131774281059105C7
:1020B00078F08FE097E090930A078093090776DB2A
:1020C00060930B0770930C0780930D0790930E0796
:1020D0000895CF92DF92EF92FF9283E080932505DF
:1020E00020E030E040ED51E4609100057091010581
:1020F00080910205909103050E94842F18169CF090
:1021000020E030E04CE852E4609104057091050550
:1021100080910605909107050E94ED3187FD03C06F
:1021200085E497E027C084D4613177428105910529
:1021300070F1C0900405D0900505E0900605F09080
:10214000070520E030E04CE852E4C701B6010E94E8
:10215000842F87FF03C08DE297E00CC020E030E0C1
:1021600040ED51E4C701B6010E94ED3118167CF430
:1021700085E197E090930A078093090717DB609346
:102180000B0770930C0780930D0790930E07FF9039
:10219000EF90DF90CF900895CF92DF92EF92FF9271
:1021A00082E08093250520E030E040ED51E460912D
:1021B00000057091010580910205909103050E9430
:1021C000842F18169CF020E030E04CE852E4609137
:1021D00004057091050580910605909107050E9400
:1021E000ED3187FD03C085E497E027C021D461313C
:1021F00077428105910570F1C0900405D0900505E6
:10220000E0900605F090070520E030E04CE852E44D
:10221000C701B6010E94842F87FF03C083E397E0C4
:102220000CC020E030E040ED51E4C701B6010E944F
:10223000ED3118167CF48BE197E090930A078093B8
:102240000907B4DA60930B0770930C0780930D07AE
:1022500090930E07FF90EF90DF90CF900895CF926C
:10226000DF92EF92FF9281E08093250520E030E03D
:1022700040ED51E4609100057091010580910205E7
:10228000909103050E94842F18169CF020E030E006
:102290004CE852E4609104057091050580910605B3
:1022A000909107050E94ED3187FD03C085E497E01A
:1022B00027C0BED3613177428105910570F1C0908E
:1022C0000405D0900505E0900605F090070520E094
:1022D00030E04CE852E4C701B6010E94842F87FF2A
:1022E00003C089E397E00CC020E030E040ED51E40A
:1022F000C701B6010E94ED3118167CF481E297E027
:1023000090930A078093090751DA60930B07709343
:102310000C0780930D0790930E07FF90EF90DF90CE
:10232000CF900895E0E0F5E011861286138681E0F3
:1023300084870C94D903E0E0F5E01186128681E0F1
:10234000838714860C94D903E0E0F5E0118681E0E0
:102350008287138614860C94D903E0E0F5E081E0CF
:1023600081871286138614860C94D903E0E0F5E089
:1023700011861286138681E084870C94D903E0E0ED
:10238000F5E01186128681E0838714860C94D903C8
:10239000E0E0F5E0118681E08287138614860C94D4
:1023A000D903E0E0F5E081E0818712861386148688
:1023B0000C94D903E0E0F5E01186128613861486AA
:1023C0000C94D90320E030E04CE852E4609104051D
:1023D0007091050580910605909107050E94842F54
:1023E00087FF1CC089ED93E010D3809125058230D2
:1023F00079F018F4813049F00895833061F0843029
:1024000009F058C08FE397E033C089E397E030C00C
:1024100083E397E02DC08DE297E02AC020E030E012
:1024200040ED51E460910005709101058091020535
:10243000909103050E94ED31181644F585EF93E065
:10244000E4D280912505823071F018F4813041F09A
:102450000895833059F0843069F587E297E008C029
:1024600081E297E005C08BE197E002C085E197E04B
:1024700090930A078093090799D960930B0770938B
:102480000C0780930D0790930E070895D1D2613306
:1024900075478105910530F081E194E0B6D284E082
:1024A000809325051092090510920A0510920B05DC
:1024B00010920C050895CF92DF92EF92FF920F9346
:1024C0001F93CF93DF93CDB7DEB7C853D1400FB67C
:1024D000F894DEBF0FBECDBF8C0181E294E095D2AF
:1024E000F80181818F9380818F9382E192E09F93A5
:1024F0008F9387E392E09F938F9300E012E01F9306
:102500000F9382E492E09F938F938BE494E09F93E8
:102510008F93CE0101967C019F938F930E9422346A
:102520001F930F9387E592E09F938F938E01075F30
:102530001E4F1F930F930E942234C954DF4F1982FC
:102540001882C75BD04088EE93E0A0E0B0E0C754AB
:10255000DF4F88839983AA83BB83C95BD0408FE612
:1025600092E0CB54DF4F99838883C55BD0408FEED8
:1025700096E0CF53DF4F99838883C15CD040CA5324
:10258000DF4F1882C65CD040C953DF4F1882C75C4A
:10259000D040C853DF4F1882C85CD0406DE974E06A
:1025A000CE018F5C9E4F0E94E91FCE018B549F4F3E
:1025B0005ADA86E090E00E94FD316C01BE016F5C4A
:1025C0007E4F0E94D01FCC53DF4FD982C882C45C9B
:1025D000D040CE018F5C9E4F0E940D1B62EA74E0DA
:1025E000CE018F5C9E4F0E94E91FBE016F5C7E4F43
:1025F000CE018B549F4F82D9CE018F5C9E4F0E949B
:102600000D1B6CEE72E0CE018F5C9E4F0E94E91FA5
:10261000BE016F5C7E4FCE018B549F4F6FD9CE01B0
:102620008F5C9E4FFAD765EA74E0CE018F5C9E4FB7
:102630000E94E91FBE016F5C7E4FCE018B549F4FFD
:102640005DD9CE018F5C9E4FE8D768EA74E0CE0179
:102650008F5C9E4F0E94E91FBE016F5C7E4FCE01D2
:102660008B549F4F4BD9CE018F5C9E4FD6D76BEAD0
:1026700074E0CE018F5C9E4F0E94E91FBE016F5C2B
:102680007E4FCE018B549F4F39D9CE018F5C9E4F28
:10269000C4D76FEA74E0CE018F5C9E4F0E94E91FA1
:1026A000BE016F5C7E4FCE018B549F4F27D9CE0168
:1026B0008F5C9E4FB2D7B801CE018F5C9E4F0E94B7
:1026C000E91FBE016F5C7E4FCE018B549F4F16D920
:1026D000CE018F5C9E4FA1D76FEA74E0CE018F5C74
:1026E0009E4F0E94E91FBE016F5C7E4FCE018B544E
:1026F0009F4F04D9CE018F5C9E4F8FD762EB74E061
:10270000CE018F5C9E4F0E94E91FBE016F5C7E4F21
:10271000CE018B549F4FF2D8CE018F5C9E4F7DD758
:102720006FEA74E0CE018F5C9E4F0E94E91FBE01EC
:102730006F5C7E4FCE018B549F4FE0D8CE018F5CF3
:102740009E4F6BD763EC74E0CE018F5C9E4F0E946E
:10275000E91FBE016F5C7E4FCE018B549F4FCED8D8
:10276000CE018F5C9E4F59D7B701CE018F5C9E4F33
:102770000E94E91FBE016F5C7E4FCE018B549F4FBC
:10278000BDD8CE018F5C9E4F48D782E5C95CDE4F35
:102790008883C753D140CC53DF4FE881F981C45CB3
:1027A000D040048115812081318142E0C42ED12C9A
:1027B000FE01EF5CFE4F7F0141E050E0BE01695C2D
:1027C0007E4FCF53DF4F88819981C15CD04043D188
:1027D000CE5CDE4F8881C253D140CD53DF4F88831A
:1027E000C35CD040CC53DF4F08811981C45CD0401A
:1027F0000FB6F894DEBF0FBECDBF0115110529F04D
:10280000C8010BD7C8010E949232CC53DF4F198206
:102810001882C45CD040CF5CDE4F8881C153D14068
:10282000811106C081E0CA53DF4F8883C65CD04067
:1028300092E7F92ECF5CDE4FF882C153D140CD53E1
:10284000DF4F8881C35CD040CE5CDE4F8883C253AB
:10285000D14001E010E09E01295C3E4F42E050E093
:10286000BE016F5C7E4FCF53DF4F88819981C15C81
:10287000D040C1D8C95CDE4F8881C753D140813078
:1028800039F464E670E080E090E00E949E0BD2CFC5
:1028900087E5C95CDE4F8883C753D140CD53DF4FF6
:1028A0008881C35CD040C85CDE4F8883C853D14068
:1028B00002E010E09E012F5C3E4F42E050E0BE017E
:1028C000695C7E4FCF53DF4F88819981C15CD040D6
:1028D00092D8CF5CDE4F4881C153D14050E0542F95
:1028E0004427CE5CDE4F8881C253D1408A01080F55
:1028F000111DCE018B549F4FE0D8C953DF4F888103
:10290000C75CD040882351F0CE018B549F4F15D91E
:10291000682F85EB95E00E94FD1FEBCF85EB95E0DE
:102920000E944E0961EE74E085EB95E00E9436202E
:10293000A80160E070E02AE085EB95E00E944B2062
:102940006AEE72E085EB95E00E9436208FE692E019
:10295000CB54DF4F99838883C55BD040CE018B5425
:102960009F4F81D8C85CDE4F0FB6F894DEBF0FBE14
:10297000CDBFDF91CF911F910F91FF90EF90DF902E
:10298000CF900895CF92DF92EF92FF92CF93DF9393
:10299000EC018881982F917081FB222720F99217F2
:1029A00059F090FB81F9888380FF06C00E94D60B06
:1029B0006D837E838F839887888180FF16C0C9804E
:1029C000DA80EB80FC808D819E81AF81B885C80E56
:1029D000D91EEA1EFB1E0E94D60B6C157D058E05C6
:1029E0009F0560F08881846008C00E94D60B6D83CB
:1029F0007E838F83988788818B7F8883DF91CF91B7
:102A0000FF90EF90DF90CF900895CF93DF93BC01BC
:102A100085EB95E00E943620EC016AEE72E085EBD2
:102A200095E00E9436208C0F9D1FDF91CF91089575
:102A30000F931F930E94D60B00910B0710910C0768
:102A400020910D0730910E07601B710B820B930BC9
:102A50001F910F9108952F923F924F925F926F9224
:102A60007F928F929F92AF92BF92CF92DF92EF921E
:102A7000FF920F931F93CF93DF93CDB7DEB72B97C2
:102A80000FB6F894DEBF0FBECDBF9B878A875B0170
:102A90001901FD82EC823A01600E711E872C7B8247
:102AA000912C44244A94542C9B01240F351F3F83BE
:102AB0002E839101200F311F39872887EA85FB85F6
:102AC0008085981608F036C1AA85BB8514965C925D
:102AD0004E92139715968D919C911697DC01ED916E
:102AE000FC910190F081E02D6FEF19956FEF8A85D1
:102AF0009B850E94E40CEA85FB8585819681DC013B
:102B0000ED91FC910190F081E02DAA85BB856C913F
:102B10001995EA85FB856081CF010E94E40CAA85A6
:102B2000BB8515968D919C911697DC01ED91FC91DA
:102B30000190F081E02D682D19956B818A859B8528
:102B40000E94E40CEA85FB8585819681DC01ED918C
:102B5000FC910190F081E02D662D1995662D8A85F6
:102B60009B850E94E40C75012E813F81E216F306DD
:102B7000B1F0EA85FB85858196818701DC01ED91C5
:102B8000FC910190F081E02DD7016D917D011995A7
:102B9000F80160818A859B850E94E40CE5CF710174
:102BA000AA85BB8515968D919C91169728853985A8
:102BB000E216F30691F08701DC01ED91FC910190A2
:102BC000F081E02DD7016D917D011995F8016081AB
:102BD0008A859B850E94E40CE3CFDC01ED91FC919A
:102BE000AA85BB8514966C910190F081E02D199512
:102BF000EA85FB8585819681DC01ED91FC91019050
:102C0000F081E02DAA85BB8513966C91199564E639
:102C100070E08A859B850E94AF0C8F3F910509F07B
:102C20007DC0EA85FB85548243826FEFCF010E940D
:102C3000E40C65E070E08A859B850E94AF0CAA8554
:102C4000BB856C91262F30E08217930709F066C090
:102C5000CD010E94E40C6AE070E08A859B850E94A9
:102C6000AF0C7C0197FD5AC0682F8A859B850E9416
:102C7000E40C6AE070E08A859B850E94AF0C8C01B1
:102C800097FD4CC0682F8A859B850E94E40CEA82E0
:102C90001982E981FA810E0F1F1FE12CF12C65E0EA
:102CA00070E08A859B85E016F106A9F0EC14FD041E
:102CB00091F00E94AF0C97FD0AC0EC81FD81EE0DF2
:102CC000FF1D8083682F8A859B850E94E40CFFEF9F
:102CD000EF1AFF0AE4CF0E94AF0C7C0197FD1EC0E3
:102CE00065E070E08A859B850E94AF0C97FD16C059
:102CF000FE2CEE248E0D9F1DAA85BB8513962D916B
:102D00003C9114972817390749F48C918F5F8C9365
:102D1000C801C016D10680F4C6010EC0939464EFBA
:102D200071E080E090E00E949E0B8A859B850E9466
:102D3000930CC4CE8FEF9FEF2B960FB6F894DEBFA7
:102D40000FBECDBFDF91CF911F910F91FF90EF90FC
:102D5000DF90CF90BF90AF909F908F907F906F90BB
:102D60005F904F903F902F9008958F929F92AF92D7
:102D7000BF92CF92DF92EF92FF920F931F93CF9368
:102D8000DF93CDB7DEB7C054D1400FB6F894DEBFA5
:102D90000FBECDBF8C010E94D60BF801C184D28436
:102DA000E384F4849B01AC012C193D094E095F09B1
:102DB00069017A0130EDC31637E0D306E104F1046E
:102DC00010F48189B4C0F801618772878387948782
:102DD0001482138212821182108261E085810E9426
:102DE000C60A6AEF70E080E090E00E949E0B61E00E
:102DF000F80185810E94430B60E0F80185810E9403
:102E0000C60A64E170E080E090E00E949E0BF894B6
:102E100061E0F80185810E94C60A8BE990E0019784
:102E2000F1F762E0F80185810E94430B83E290E0B4
:102E30000197F1F760E0C8010E942C0C672B682B0A
:102E4000692B21F4F801118A789442C061E0C8012D
:102E50000E942C0C672B682B692BA1F39E012F5F1E
:102E60003F4F79015E013FEBA31A3EEFB30A6701C2
:102E700060E0C8010E942C0CF6016083718382839C
:102E8000938361E0C8010E942C0CF6016483758372
:102E900086839783F8E0CF0ED11CCA14DB0441F778
:102EA000789420E030E0F7014081518162817381A4
:102EB00084809580A680B780411551056105710514
:102EC00029F081149104A104B10421F4F801118ABC
:102ED00080E02DC0F90183E0F595E7958A95E1F74B
:102EE000E00FF11F8081880F481559056A057B05A1
:102EF00008F4816080832F5F3F4FF8E0EF0EF11CF4
:102F00002832310581F6F801248130E04081818149
:102F100090E0840F911D4281840F911D4381840FA5
:102F2000911D99272817390789F681E0818BC05CAC
:102F3000DE4F0FB6F894DEBF0FBECDBFDF91CF914D
:102F40001F910F91FF90EF90DF90CF90BF90AF90C7
:102F50009F908F9008950F931F93CF93DF93EC0171
:102F600088819981009729F02A813B8126173707AC
:102F700088F48B016F5F7F4F0E942A33009761F0C6
:102F8000998388831B830A832C813D81232B11F431
:102F9000FC01108281E001C080E0DF91CF911F91A0
:102FA0000F910895EF92FF920F931F93CF93DF93AA
:102FB000FC01248135816115710511F480E018C090
:102FC00041155105A1F07B01EC018A01020F131F8D
:102FD000B801C1DF882391F3288139818C819D81DB
:102FE000B701820F931F0E941B341D830C8381E065
:102FF000DF91CF911F910F91FF90EF900895CF92A5
:10300000DF92EF92FF92CF93DF93EC01AEDE882345
:1030100081F18E818B3031F160F18551823048F53C
:10302000688170E080E090E00E94882F20E030E02E
:1030300040E853E40E94E92F6B017C018981682FED
:1030400070E080E090E00E948A2F9B01AC01C701F4
:10305000B6010E94F5302DEC3CEC4CEC5DE30E9497
:10306000E92F0BC0688170E080E090E00E94882F1B
:1030700004C060E070E080EC9FE7DF91CF91FF90AB
:10308000EF90DF90CF900895CF93DF93BC0185EB55
:1030900095E0C8D7EC016AEE72E085EB95E0E6D7E3
:1030A0008C0F9D1FDF91CF9108958F929F92AF92C9
:1030B000BF92CF92DF92EF92FF92CF93DF936B019B
:1030C0007C019B01AC010E94F131882319F063EF70
:1030D00074E027C046015701E894B7F82FEF3FEF9F
:1030E0004FE75FE7C501B4010E94F13181110DC0C6
:1030F0002FEF3FEF4FE75FE7C501B4010E94842F38
:1031000018161CF467EF74E00CC02FEF3FEF4FE789
:103110005FE4C701B6010E94ED3118167CF46BEF35
:1031200074E085EB95E0DF91CF91FF90EF90DF9019
:10313000CF90BF90AF909F908F9098C72FEF3FEFA9
:103140004FE75FECC701B6010E94842F87FDE7CFF0
:1031500020E030E0A901C701B6010E94842F87FF5B
:103160000AC06DE285EB95E048D7EC01F7FAF094E0
:10317000F7F8F09402C0C0E0D0E02DEC3CEC4CE459
:103180005DE3C701B6010E94F5304B015C010E946E
:10319000C1316B017C010E94882F9B01AC01C501EC
:1031A000B4010E94F4304B015C012AE0B701A60192
:1031B00085EB95E070D7C80FD91F6EE285EB95E0DF
:1031C0001CD7C80FD91F20E030E040E251E4C50110
:1031D000B4010E94E92F0E94C131AB0160E070E0B0
:1031E0002AE085EB95E057D78C0F9D1FDF91CF919B
:1031F000FF90EF90DF90CF90BF90AF909F908F9017
:103200000895CF92DF92EF92FF921F93CF93DF93B7
:10321000EC01ABDD8823B1F18E818B3029F090F188
:103220008551823040F02EC06A8170E080E090E0ED
:103230000E94882F2BC01A81612F6F7770E080E089
:1032400090E00E948A2F20E030E040E853E40E94A2
:10325000E92F6B017C018B81682F70E080E090E0AA
:103260000E948A2F9B01AC01C701B6010E94F53074
:103270002DEC3CEC4CEC5DE30E94E92F17FF06C0FF
:10328000905804C060E070E080EC9FE7DF91CF9140
:103290001F91FF90EF90DF90CF900895CF93DF9331
:1032A000BC0185EB95E0B0D6EC016AEE72E085EBEF
:1032B00095E0DCD68C0F9D1FDF91CF910895209172
:1032C0003B0890913A08213208F04AC080911708D3
:1032D0008111FCCF32E03093170831E030931608AB
:1032E0003FEF309315081092140820931308AAE1B9
:1032F000B8E043EF57E0FA013E2F341B321718F4C1
:103300003D913193F9CF1092F2072091F207990F76
:10331000922B9093F2079091F107913061F4109203
:10332000F1079091F2079093BB009091BC0093FD40
:10333000F8CF95EC01C095EE9093BC0090911708E2
:103340009230E1F3909115089F3F79F08091150834
:10335000803241F080911508803331F084E005C05F
:1033600081E003C082E001C083E01092190810924E
:103370003B08109218080895CF93DF93CDB7DEB7BE
:1033800028970FB6F894DEBF0FBECDBF28E0EBEB59
:10339000F2E0DE01119601900D922A95E1F7FC0111
:1033A0002185261710F46FEF620FFE013196E60FAC
:1033B000F11DE60FF11D6081606840E028960FB6B0
:1033C000F894DEBF0FBECDBFDF91CF910C94BD0D41
:1033D000909117089111FCCF91E09093170890936A
:1033E00016082FEF2093150810921408260F20932B
:1033F00013089093F2079091F207880F892B80931E
:10340000F2078091F107813061F41092F107809109
:10341000F2078093BB008091BC0083FDF8CF85EC60
:1034200001C085EE8093BC00809117088130E1F3E4
:1034300080911408861710F460911408A3EFB7E088
:1034400021ED37E0F9018E2F821B861718F48D913C
:103450008193F9CF862F0895813208F080E2682F9A
:1034600088E6B6DF1092D0078093CF0708951F93A8
:10347000CF93DF931F92CDB7DEB7162F91E09093D5
:10348000180880933A081092190810923B0861E0DE
:103490008AEF96E07983D9D17981672F8AEF96E018
:1034A000D4D1612F8AEF96E0D0D10F90DF91CF91E8
:1034B0001F9105CF1092D0071092CF0710921908D4
:1034C00010923B081092170881E080931608109222
:1034D000F10761E084E10E94C60A61E085E10E9493
:1034E000C60AE9EBF0E080818E7F808380818D7F4A
:1034F000808388E48093B80085E48093BC000895BD
:10350000EF92FF920F931F93CF93DF936115710595
:1035100011F480E01DC08B01EC01CB010E94CF2C87
:103520000097A9F02C813D817C01E20EF31EB701CA
:10353000CE0111DD882369F3288139818C819D8139
:10354000B801820F931F0E94C82CFD82EC8281E09B
:10355000DF91CF911F910F91FF90EF90089561152A
:10356000710549F0FB0101900020E9F73197AF01A7
:10357000461B570B17CD80E00895FB014481558110
:10358000608171810FCDEF92FF920F931F93CF93C4
:10359000DF93EC017B018A01BA01DDDC28813981EE
:1035A00081110DC02115310519F0C9010E94923217
:1035B000198218821D821C821B821A8206C01D83FA
:1035C0000C83B701C9010E941B34CE01DF91CF915A
:1035D0001F910F91FF90EF900895CF93DF93EC012F
:1035E0006115710551F0FB0101900020E9F7319759
:1035F000AF01461B570BC7DF0CC08881998100972C
:1036000011F00E949232198218821D821C821B8244
:103610001A82CE01DF91CF910895FC0180819181C2
:103620000C949232EF92FF920F931F93CF93DF93FC
:10363000CDB7DEB7A1970FB6F894DEBF0FBECDBFF2
:103640007C01CB01BA01F701118210821382128230
:103650001582148242E0420F8E010F5F1F4F0E94BD
:10366000A92CBC01C701B9DFA1960FB6F894DEBF43
:103670000FBECDBFDF91CF911F910F91FF90EF90C3
:1036800008950F931F93CF93DF93CDB7DEB7629763
:103690000FB6F894DEBF0FBECDBF8C01CB01F80191
:1036A00011821082138212821582148250E0BE01B0
:1036B0006F5F7F4F0E94D82CBE016F5F7F4FC801A4
:1036C0008CDF62960FB6F894DEBF0FBECDBFDF91E0
:1036D000CF911F910F9108950F931F93CF93DF9375
:1036E000CDB7DEB729970FB6F894DEBF0FBECDBFBA
:1036F0008C01862FF80111821082138212821582AA
:10370000148250E0BE016F5F7F4F90E00E94EC2C6E
:10371000BE016F5F7F4FC80160DF29960FB6F89436
:10372000DEBF0FBECDBFDF91CF911F910F910895E6
:1037300085ED8093BC008091BC0084FDFCCF10928D
:103740001708089540915E08262F30E0240F311DA0
:1037500021323105DCF4209117082430C9F4FC0132
:1037600080E090E0861758F430915E082191DC01EA
:10377000A45CB74FA30FB11D2C930196F3CF80919A
:103780005E08680F60935E0880E0089581E0089508
:1037900082E008950895E091D0078091CF07E8175F
:1037A00030F4F0E0EF52F84F808190E008958FEF11
:1037B0009FEF08959091D0078091CF07981750F40C
:1037C000E92FF0E0EF52F84F208130E09F5F9093B7
:1037D000D00702C02FEF3FEFC90108958091CF07B6
:1037E00090E02091D007821B91090895CF92DF923B
:1037F000EF92FF920F931F93CF93DF937C01262FBD
:10380000972F8A0180911808882391F0C62FD72F0F
:103810006E01C40ED51ECC15DD0569F06991D70186
:10382000ED91FC910190F081E02DC7011995F3CF46
:10383000642F822F87DFC801DF91CF911F910F91F5
:10384000FF90EF90DF90CF900895CF93DF931F927A
:10385000CDB7DEB76983209118082223D1F02091DB
:103860003B08203240F021E030E0FC01338322832A
:1038700080E090E014C080911908E82FF0E0E65E47
:10388000F74F998190838F5F8093190880933B084D
:1038900004C061E0CE01019655DF81E090E00F9019
:1038A000DF91CF9108951F920F920FB60F921124BE
:1038B0000BB60F922F933F934F935F936F937F932A
:1038C0008F939F93AF93BF93EF93FF938091B90032
:1038D000887F803609F49CC068F5883209F45BC0A3
:1038E00090F4803109F454C038F4882309F4F6C008
:1038F000883009F44DC0F5C0883109F44CC08032DD
:1039000009F45DC0EEC0803409F468C048F4803327
:1039100009F455C0883309F0E4C080931508D8C075
:10392000803509F44FC0883509F45DC0883409F04A
:10393000D8C0D6C0883909F4C7C0A8F4883709F4BC
:1039400067C038F4883609F463C0803709F460C072
:10395000C8C0883809F4B8C0803909F45FC080381D
:1039600009F0BFC05BC0803B09F486C038F4803AE0
:1039700009F466C0883A09F47FC0B3C0803C09F4FA
:10398000A7C0883C09F4A4C0883B09F48AC0A9C038
:103990008091F20710C09091140880911308981735
:1039A00070F5E091140881E08E0F80931408F0E028
:1039B000ED50F84F80818093BB0085EC86C08093EA
:1039C00015088EC0E091140881E08E0F80931408D2
:1039D0008091BB00F0E0ED50F84F80839091140887
:1039E000809113086EC0E091140881E08E0F8093DF
:1039F00014088091BB00F0E0ED50F84F8083809177
:103A0000160881116DC081E08093F10784EA61C0DE
:103A100083E08093170810928208CFCF80918208AC
:103A2000803208F051C0E091820881E08E0F8093CF
:103A300082088091BB00F0E0EE59F74F8083BDCF44
:103A400085EC8093BC001092170880918208803228
:103A500030F4E0918208F0E0EE59F74F1082609167
:103A6000820870E0E0916008F091610882E698E0D9
:103A700019951092820835C084E08093170810923F
:103A80005F0810925E08E0915C08F0915D0819955E
:103A900080915E08811105C081E080935E081092DC
:103AA0003C08E0915F0881E08E0F80935F08F0E0B2
:103AB000E45CF74F80818093BB0090915F08809118
:103AC0005E08981708F479CF85E88093BC0009C098
:103AD00085EC8093BC001092170803C01092150863
:103AE00027DEFF91EF91BF91AF919F918F917F91D1
:103AF0006F915F914F913F912F910F900BBE0F905F
:103B00000FBE0F901F901895CF92DF92EF92FF9209
:103B100082E897E00E94650EBC01990F880B990B13
:103B20000E948A2F20E030E040E45EE30E94E92F0B
:103B30006B017C0120E030E0A9010E94842F18165F
:103B4000F4F420E030E84BE355E4C701B6010E94ED
:103B5000ED3187FF18C020E030E040E451E4C701B8
:103B6000B6010E94E92F20E030E84BE355E40E94C3
:103B7000593120E030E0A9010E94F53008C060E032
:103B800070E0CB0104C060E070E080E491E40E944A
:103B9000C13160930D0582E897E00E94430EBC019D
:103BA000990F880B990B0E948A2F20E030E040E4A7
:103BB0005EE30E94E92F6B017C0120E030E0A90167
:103BC0000E94842F1816F4F420E030E84BE355E40B
:103BD000C701B6010E94ED3187FF18C020E030E038
:103BE00040E451E4C701B6010E94E92F20E030E82B
:103BF0004BE355E40E94593120E030E0A9010E94D6
:103C0000F53008C060E070E0CB0104C060E070E017
:103C100080E491E40E94C13160930E058DE797E046
:103C20000E94650EBC01990F880B990B0E948A2F88
:103C300020E030E040E45EE30E94E92F6B017C016C
:103C400020E030E0A9010E94842F1816F4F420E04F
:103C500030E84BE355E4C701B6010E94ED3187FF20
:103C600018C020E030E040E451E4C701B6010E94F2
:103C7000E92F20E030E84BE355E40E94593120E081
:103C800030E0A9010E94F53008C060E070E0CB018F
:103C900004C060E070E080E491E40E94C131609370
:103CA0000F058DE797E00E94430EBC01990F880B2A
:103CB000990B0E948A2F20E030E040E45EE30E94EE
:103CC000E92F6B017C0120E030E0A9010E94842FE4
:103CD0001816F4F420E030E84BE355E4C701B601D0
:103CE0000E94ED3187FF18C020E030E040E451E44D
:103CF000C701B6010E94E92F20E030E84BE355E40C
:103D00000E94593120E030E0A9010E94F53008C03E
:103D100060E070E0CB0104C060E070E080E491E41A
:103D20000E94C1316093100588E797E00E94650EFC
:103D3000BC01990F880B990B0E948A2F20E030E07C
:103D400040E45EE30E94E92F6B017C0120E030E05B
:103D5000A9010E94842F1816F4F420E030E84BE308
:103D600055E4C701B6010E94ED3187FF18C020E07D
:103D700030E040E451E4C701B6010E94E92F20E0A1
:103D800030E84BE355E40E94593120E030E0A901CE
:103D90000E94F53008C060E070E0CB0104C060E034
:103DA00070E080E491E40E94C1316093110588E7DE
:103DB00097E00E94430EBC01990F880B990B0E945B
:103DC0008A2F20E030E040E45EE30E94E92F6B019F
:103DD0007C0120E030E0A9010E94842F1816F4F441
:103DE00020E030E84BE355E4C701B6010E94ED3115
:103DF00087FF18C020E030E040E451E4C701B6017D
:103E00000E94E92F20E030E84BE355E40E9459314D
:103E100020E030E0A9010E94F53008C060E070E0C9
:103E2000CB0104C060E070E080E491E40E94C13105
:103E30006093120583E797E00E94650EBC01990F1D
:103E4000880B990B0E948A2F20E030E040E45EE36B
:103E50000E94E92F6B017C0120E030E0A9010E9463
:103E6000842F1816F4F420E030E84BE355E4C70142
:103E7000B6010E94ED3187FF18C020E030E040E439
:103E800051E4C701B6010E94E92F20E030E84BE37E
:103E900055E40E94593120E030E0A9010E94F5303C
:103EA00008C060E070E0CB0104C060E070E080E436
:103EB00091E40E94C1316093130583E797E00E946B
:103EC000430EBC01990F880B990B0E948A2F20E0AA
:103ED00030E040E45EE30E94E92F6B017C0120E0CA
:103EE00030E0A9010E94842F1816F4F420E030E895
:103EF0004BE355E4C701B6010E94ED3187FF18C0BE
:103F000020E030E040E451E4C701B6010E94E92F0F
:103F100020E030E84BE355E40E94593120E030E0E6
:103F2000A9010E94F53008C060E070E0CB0104C038
:103F300060E070E080E491E40E94C1316093140578
:103F4000FF90EF90DF90CF900895CF92DF92EF92A5
:103F5000FF920F931F93CF93DF936C017A018B0134
:103F6000C0E0D0E0CE15DF0589F0D8016D918D015C
:103F7000D601ED91FC910190F081E02DC6011995DB
:103F8000892B11F47E0102C02196ECCFC701DF918D
:103F9000CF911F910F91FF90EF90DF90CF900895F8
:103FA000FB01DC0111961C921E9213961C921E922C
:103FB000129715961C921E9214978617970741F038
:103FC000608171816115710519F044815581DBCAE9
:103FD0000895FC01118210821382128215821482CC
:103FE0006115710549F0FB0101900020E9F7319757
:103FF000AF01461B570BC7CA0895DC01ED91FC9138
:104000000190F081E02D1994DC01ED91FC91DB0130
:1040100014964D915C9115976D917C910280F3817E
:10402000E02D1994EF92FF920F931F93CF93DF939C
:104030008C017B01C0E0D0E0F701EC0FFD1F649123
:10404000662361F0D801ED91FC910190F081E02DA3
:10405000C8011995892B11F02196EECFCE01DF9181
:10406000CF911F910F91FF90EF9008956115710509
:1040700079F0FB0101900020E9F73197AF01461B71
:10408000570BDC01ED91FC910280F381E02D199436
:1040900080E090E008954F925F926F927F92EF924E
:1040A000FF920F931F93CF93DF93CDB7DEB7A19706
:1040B0000FB6F894DEBF0FBECDBF7C01FA01CB0175
:1040C00019A2223008F42AE08E010F5D1F4F422E04
:1040D000512C612C712CBF01A30192010E94C330AD
:1040E000F901CA01015011096A3014F4605D01C080
:1040F000695CD8016C93232B242B252B61F7B80125
:10410000C701B4DFA1960FB6F894DEBF0FBECDBFD6
:10411000DF91CF911F910F91FF90EF907F906F9063
:104120005F904F900895CF93DF93CDB7DEB7609740
:104130000FB6F894DEBF0FBECDBF789484B5826011
:1041400084BD84B5816084BD85B5826085BD85B53B
:10415000816085BD80916E00816080936E001092B9
:104160008100809181008260809381008091810034
:1041700081608093810080918000816080938000C5
:104180008091B10084608093B1008091B000816023
:104190008093B00080919100826080939100809123
:1041A0009100816080939100809190008160809364
:1041B00090008091A10082608093A1008091A10075
:1041C00081608093A1008091A00081608093A00015
:1041D0008091210182608093210180912101816081
:1041E0008093210180912001816080932001809142
:1041F0007A00846080937A0080917A008260809354
:104200007A0080917A00816080937A0080917A00B0
:10421000806880937A001092C10060ED77E080E0C2
:1042200090E00E949E0B46D9E091C505F091C6052D
:1042300002E00083E091C105F091C2051082E09197
:10424000C305F091C4058FEC80831092CD05E091F9
:10425000C905F091CA0516E01083E091C705F091F9
:10426000C805808180618083E091C705F091C80511
:10427000808188608083E091C705F091C8058081C6
:1042800080688083E091C705F091C80580818F7DAB
:10429000808383EC92E00E940515E091F806F0918E
:1042A000F906A089B1890C93A485B5851C92A685D1
:1042B000B78580E18C93108EA489B5891C93A2895F
:1042C000B3898C9180618C93A289B3898C91886029
:1042D0008C93A289B3898C9180688C930288F3892E
:1042E000E02D80818F7D80838091F6068111BFC093
:1042F00081E08093F6068FEE96E00E94930C68EEC4
:1043000073E080E090E00E949E0B8091F406909113
:10431000F506DC01ED91FC910480F581E02D199505
:104320001816190644F365E0F62EEE24E39472E3C2
:10433000D72EEDE4F2E0DE0117968F2D01900D925D
:104340008A95E1F7E092F70600E010E020E030E027
:1043500045E050E0BE01695F7F4F8FEE96E00E941E
:10436000FB0C63E08091F4069091F50646DE68EE62
:1043700073E080E090E00E949E0B60E172E080912B
:10438000F4069091F5064EDE68EE73E080E090E072
:104390000E949E0B6EE072E08091F4069091F5060B
:1043A00041DE60ED77E080E090E00E949E0B62E0ED
:1043B00072E08091F4069091F50634DE60ED77E0CE
:1043C00080E090E00E949E0B8FEE96E00E94930C9E
:1043D000E2E5F2E0DE0111968F2D01900D928A95B3
:1043E000E1F7D092F70604E010E09E01235F3F4F13
:1043F00045E050E0BE016F5F7F4F8FEE96E00E9478
:10440000FB0C8F3FBFEF9B0739F460ED77E080E056
:1044100090E00E949E0B8DCF2D852111FFCF049738
:10442000E9F42E8530E02053310984E6829FA00113
:10443000839F500D11242F8530E0205331096AE00D
:10444000629FC001639F900D1124840F951F2889DE
:1044500030E020533109820F931F02C084E690E0C0
:104460009093F1068093F00682E38093F70684ED43
:1044700092E00E94051564EC79E080E090E00E94F3
:104480009E0B64EE72E085EB95E0F0DD80E092E05B
:104490000E9405156AEE72E085EB95E0E7DD84E0A9
:1044A00080932505109208051092090510920A05BF
:1044B00010920B0510920C05109200051092010548
:1044C0001092020510920305EDE0F5E088E08E0FF2
:1044D00011928E13FDCFE9E1F5E088E08E0F119285
:1044E0008E13FDCF8091A3051092A8051092A90507
:1044F0001092AA051092AB058C7F8B7F8093A30549
:1045000048EE53E060E070E04093A4055093A505A9
:104510006093A6057093A70580919A0510929F0558
:104520001092A0051092A1051092A2058C7F8B7F9E
:1045300080939A0540939B0550939C0560939D053D
:1045400070939E05A6E7B5E080E090E039E0389FE3
:10455000F001399FF00D1124EA58FA4F20812E7F87
:104560002B7F208315961D921D921D921C921897E9
:1045700020812D7F208311964D935D936D937C93C5
:104580001497019619968430910509F7AEE2B5E0CB
:1045900080E090E039E048EC50E060E070E0389F67
:1045A000F001399FF00D1124E25DFA4F20812E7F3A
:1045B0002B7F208315961D921D921D921C92189799
:1045C00020812D7F208311964D935D936D937C9375
:1045D0001497019619968830910509F780E090E0CC
:1045E000FC01E65DFA4F20812A7F2D7F2083019612
:1045F00084309105A9F761E086E10E94430B61E0F8
:1046000086E20E94430B61E088E20E94430B61E076
:104610008AE20E94430B61E08CE20E94430B61E05E
:1046200087E20E94430B61E089E20E94430B61E054
:104630008BE20E94430B61E08DE20E94430B61E03C
:104640008EE10E94430B61E08FE10E94430B61E029
:1046500080E20E94430B61E081E20E94430B61E033
:1046600082E20E94430B61E083E20E94430B0E94BE
:104670005A1A81E08093180888E680933A081092CD
:10468000190810923B0860E08AEF96E0DED80E949D
:104690005F1981E090E00E942C1A8AEF96E08AD898
:1046A00087FF04C08DEE92E00E94051562E08091C4
:1046B000C2070E94430B50E3C52E58EFD52EEE24BF
:1046C000EA94FE2CC092C607D092C707E092C807B2
:1046D000F092C90762E08091B0070E94430BC0923C
:1046E000B407D092B507E092B607F092B70762E040
:1046F00080919E070E94430BC092A207D092A3070D
:10470000E092A407F092A50762E080918C070E94D6
:10471000430BC0929007D0929107E0929207F092DB
:1047200093070E945A1A0E945A1A0E945A1A0E940B
:104730005A1A87E697E00E94E90D8BE597E00E9400
:10474000E90D87E697E00E94E10D8BE597E00E9476
:10475000E10D60E087E697E00E94BC196DE872E029
:1047600087E697E05FDC61E087E697E00E94BC198E
:1047700069E772E087E697E055DC62E087E697E05C
:104780000E94BC1965E672E087E697E04BDC63E0C7
:1047900087E697E00E94BC1961E572E087E697E042
:1047A00041DC60E08BE597E00E94BC196DE372E0AC
:1047B0008BE597E037DC61E08BE597E00E94BC1960
:1047C0006AE272E08BE597E02DDC62E08BE597E032
:1047D0000E94BC196EE172E08BE597E023DC63E098
:1047E0008BE597E00E94BC1962E172E08BE597E0EF
:1047F00019DC0E9477070E94C70286D987E697E0F6
:104800000E94E10D8BE597E00E94E10D0E94940665
:104810000E946F046CEE72E0CE010796DADB61E075
:1048200073E0CE0107960E94AF1A409100055091A7
:104830000105609102057091030521E0CE0101960A
:104840000E94121BBE016F5F7F4FCE0107960E9430
:10485000BD1ACE0101960E940D1B68E073E0CE01E7
:1048600007960E94AF1A409104055091050560918A
:1048700006057091070520E0CE0101960E94121BEB
:10488000BE016F5F7F4FCE0107960E94BD1ACE0119
:1048900001960E940D1B6FE073E0CE0107960E9407
:1048A000AF1A4AE060911905CE0101960E946C1B77
:1048B000BE016F5F7F4FCE0107960E94BD1ACE01E9
:1048C00001960E940D1B66E173E0CE0107960E94DF
:1048D000AF1A4AE060911A05CE0101960E946C1B46
:1048E000BE016F5F7F4FCE0107960E94BD1ACE01B9
:1048F00001960E940D1BBE01695F7F4FCE0101969C
:104900004FDBCE0101960E945B12CE0101960E9400
:104910000D1B6CEE72E0CE0107960E94ED1A6EE15F
:1049200073E0CE0107960E94AF1A4AE060911B0522
:10493000CE0101960E946C1BBE016F5F7F4FCE01BE
:1049400007960E94BD1ACE0101960E940D1B65E2DA
:1049500073E0CE0107960E94AF1A4AE060911C05F1
:10496000CE0101960E946C1BBE016F5F7F4FCE018E
:1049700007960E94BD1ACE0101960E940D1B6DE2A2
:1049800073E0CE0107960E94AF1A4AE060911D05C0
:10499000CE0101960E946C1BBE016F5F7F4FCE015E
:1049A00007960E94BD1ACE0101960E940D1B64E37A
:1049B00073E0CE0107960E94AF1A4AE060911E058F
:1049C000CE0101960E946C1BBE016F5F7F4FCE012E
:1049D00007960E94BD1ACE0101960E940D1BBE01D2
:1049E000695F7F4FCE010196DBDACE0101960E940E
:1049F0005B12CE0101960E940D1B6CEE72E0CE019F
:104A000007960E94ED1A6CE373E0CE0107960E94B0
:104A1000AF1A4AE060911F05CE0101960E946C1BFF
:104A2000BE016F5F7F4FCE0107960E94BD1ACE0177
:104A300001960E940D1B63E473E0CE0107960E946D
:104A4000AF1A4AE060912005CE0101960E946C1BCE
:104A5000BE016F5F7F4FCE0107960E94BD1ACE0147
:104A600001960E940D1B6BE473E0CE0107960E9435
:104A7000AF1A6091080570E04AE0CE0101960E94ED
:104A8000411BBE016F5F7F4FCE0107960E94BD1A8A
:104A9000CE0101960E940D1BBE01695F7F4FCE01C2
:104AA00001967EDACE0101960E945B12CE0101963C
:104AB0000E940D1B6CEE72E0CE0107960E94ED1A6B
:104AC00061E573E0CE0107960E94AF1A6091090577
:104AD00070E04AE0CE0101960E94411BBE016F5F6B
:104AE0007F4FCE0107960E94BD1ACE0101960E940B
:104AF0000D1B66E573E0CE0107960E94AF1A609128
:104B00000A0570E04AE0CE0101960E94411BBE01F9
:104B10006F5F7F4FCE0107960E94BD1ACE010196AE
:104B20000E940D1B6BE573E0CE0107960E94AF1A41
:104B300060910B0570E04AE0CE0101960E94411B96
:104B4000BE016F5F7F4FCE0107960E94BD1ACE0156
:104B500001960E940D1B60E673E0CE0107960E944D
:104B6000AF1A60910C0570E04AE0CE0101960E94F8
:104B7000411BBE016F5F7F4FCE0107960E94BD1A99
:104B8000CE0101960E940D1BBE01695F7F4FCE01D1
:104B9000019606DACE0101960E945B12CE010196C3
:104BA0000E940D1B6CEE72E0CE0107960E94ED1A7A
:104BB00065E673E0CE0107960E94AF1A4AE0609165
:104BC0000D05CE0101960E946C1BBE016F5F7F4FE9
:104BD000CE0107960E94BD1ACE0101960E940D1BC0
:104BE0006BE673E0CE0107960E94AF1A4AE060912F
:104BF0000F05CE0101960E946C1BBE016F5F7F4FB7
:104C0000CE0107960E94BD1ACE0101960E940D1B8F
:104C100061E773E0CE0107960E94AF1A4AE0609107
:104C20001005CE0101960E946C1BBE016F5F7F4F85
:104C3000CE0107960E94BD1ACE0101960E940D1B5F
:104C400067E773E0CE0107960E94AF1A4AE06091D1
:104C50001105CE0101960E946C1BBE016F5F7F4F54
:104C6000CE0107960E94BD1ACE0101960E940D1B2F
:104C7000BE01695F7F4FCE01019692D9CE010196A8
:104C80000E945B12CE0101960E940D1B6CEE72E039
:104C9000CE0107960E94ED1A6DE773E0CE010796EC
:104CA0000E94AF1A4AE060911205CE0101960E945F
:104CB0006C1BBE016F5F7F4FCE0107960E94BD1A2D
:104CC000CE0101960E940D1B63E873E0CE010796AA
:104CD0000E94AF1A4AE060911305CE0101960E942E
:104CE0006C1BBE016F5F7F4FCE0107960E94BD1AFD
:104CF000CE0101960E940D1B69E873E0CE01079674
:104D00000E94AF1A4AE060911405CE0101960E94FC
:104D10006C1BBE016F5F7F4FCE0107960E94BD1ACC
:104D2000CE0101960E940D1B6FE873E0CE0107963D
:104D30000E94AF1A4AE060911505CE0101960E94CB
:104D40006C1BBE016F5F7F4FCE0107960E94BD1A9C
:104D5000CE0101960E940D1BBE01695F7F4FCE01FF
:104D600001961ED9CE0101960E945B12CE010196DA
:104D70000E940D1B0E94D60B609357077093580733
:104D80008093590790935A070E94D60B60934F0760
:104D9000709350078093510790935207CE01079666
:104DA0000E940D1B01E019E00E94C7020E94841DB1
:104DB000C0904F07D0905007E0905107F0905207F5
:104DC00020E1C20E27E2D21EE11CF11C0E94D60B8C
:104DD000C616D706E806F90670F40E9477070E9407
:104DE000D60B60934F0770935007809351079093B1
:104DF00052070E946F04C0900005D0900105E0901A
:104E00000205F0900305BB24B39420E030E040EFAE
:104E100051E4C701B6010E94ED3187FDB12C8091AC
:104E2000A305B0FA80F98093A30583EA95E00E9478
:104E3000C21420E030E040ED51E4C701B6010E9409
:104E4000842F881F8827881F90919A0580FB90F9EE
:104E500090939A058AE995E00E94C2148091A30577
:104E600082FF1DC080910805811119C000930805BB
:104E700065E973E0CE010796ACD8BE01695F7F4F4C
:104E8000CE0101968DD8CE0101960E945B12CE0113
:104E900001960E940D1BCE0107960E940D1B80916A
:104EA0009A0582FF1DC0809108058823C9F01092E1
:104EB00008056CE973E0CE0107968BD8BE01695FE7
:104EC0007F4FCE0101966CD8CE0101960E945B12F5
:104ED000CE0101960E940D1BCE0107960E940D1B6C
:104EE0003AE1C32E35E0D32E46E7A42E45E0B42E9A
:104EF000E12CF12C1E9DF0011F9DF00D1124EA58AC
:104F0000FA4FD60111972C9130E0D6018C91281BD5
:104F1000310937FF03C031952195310991E02531E1
:104F200031050CF490E0808190FB80F98083C5010D
:104F30000E94C214D701A050BB4F1E9DF0011F9DBF
:104F4000F00D1124EA58FA4F908192FB992790F9BD
:104F500091968C919197891711F091969C93BFEF40
:104F6000EB1AFB0A22E0C20ED11C89E0A80EB11C8C
:104F7000A4E0EA16F10409F0BDCF2EE2C22E25E02E
:104F8000D22EE12CF12C1E9DF0011F9DF00D11245D
:104F9000E25DFA4F91E0D701A050BB4F1D968C9176
:104FA000873008F090E0808190FB80F98083C60113
:104FB0000E94C214BFEFEB1AFB0A29E0C20ED11CFB
:104FC00088E0E816F104F9F6412C512C32014394A3
:104FD000EE24E394F12C6201F20131975701A1E034
:104FE000AA1AB1081A9DD0011B9DB00D1124A25D13
:104FF000BA4F8C9182FF0CC01E9DD0011F9DB00D39
:105000001124A25DBA4F9C9192FB992790F901C09F
:1050100090E0E65DFA4F808190FB80F98B7F808382
:10502000982F917081FB222720F9921739F090FB7D
:1050300081F9808381FF02C084608083808182FF48
:1050400010C06AEA72E085EB95E00E9412202AE027
:10505000B301A20185EB95E01ED881EA92E00E949F
:1050600044181A9DF0011B9DF00D1124E25DFA4FCA
:105070008081F601E050FB4F82FD0AC01E9DD001E9
:105080001F9DB00D1124A25DBA4F8C9182FF02C00A
:10509000048B01C0148AB2E0EB0EF11C2FEF421A10
:1050A000520A620A720A89E0E816F10409F093CF05
:1050B00080910607E0910707F0910807882349F0DF
:1050C0000190F081E02D309709F0199510920607B4
:1050D0002FC0E0900907F0900A07EE15FF05F1F0E8
:1050E0000480F581E02D309709F01995F0920A07B8
:1050F000E0920907F0920807E0920707D701ED91C7
:10510000FC91309709F019950E94D60B60930B071C
:1051100070930C0780930D0790930E07E09107079B
:10512000F09108070280F381E02D309709F019957E
:1051300061E086E10E94C60AF09008056F2D82E2C8
:105140000E94C60A6F2D83E20E94C60A6091210563
:1051500086E20E94C60A6091220588E20E94C60A81
:10516000609123058AE20E94C60A609124058CE2C0
:105170000E94C60A6091150587E20E94C60A6091E6
:10518000160589E20E94C60A609117058BE20E940B
:10519000C60A609118058DE20E94C60A6091090551
:1051A0008EE10E94C60A60910A058FE10E94C60A3C
:1051B00060910B0580E20E94C60A60910C0581E2B5
:1051C0000E94C60AC0905707D0905807E090590730
:1051D000F0905A07B8EECB0EB3E0DB1EE11CF11CD9
:1051E0000E94D60BC616D706E806F90660F40E94A0
:1051F000D60B609357077093580780935907909385
:105200005A070E949406C0905307D0905407E0902C
:105210005507F090560720EDC20E27E0D21EE11C84
:10522000F11C0E94D60BC616D706E806F90660F4F4
:105230000E94D60B609353077093540780935507D1
:10524000909356070E946F04C0904B07D0904C0774
:10525000E0904D07F0904E0780E6C80E8AEED81E0B
:10526000E11CF11C0E94D60BC616D706E806F9060B
:1052700008F059C183EA93E00E9405156CEE72E0D4
:10528000CE0107960E94E91F61E073E0CE01079608
:105290000E94AF1A409100055091010560910205EE
:1052A0007091030521E0CE0101960E94121BBE0100
:1052B0006F5F7F4FCE0107960E94BD1ACE01019607
:1052C0000E940D1B68E073E0CE0107960E94AF1AA2
:1052D0004091040550910505609106057091070500
:1052E00020E0CE0101960E94121BBE016F5F7F4F2E
:1052F000CE0107960E94BD1ACE0101960E940D1B99
:105300006FE073E0CE0107960E94AF1A4AE0609109
:105310001905CE0101960E946C1BBE016F5F7F4F85
:10532000CE0107960E94BD1ACE0101960E940D1B68
:1053300066E173E0CE0107960E94AF1A4AE06091E1
:105340001A05CE0101960E946C1BBE016F5F7F4F54
:10535000CE0107960E94BD1ACE0101960E940D1B38
:10536000CE0107960E944E19BE01695F7F4FCE01A4
:1053700001960E94D01FCE0101960E945B12CE01C1
:1053800001960E940D1B6CEE72E0CE0107960E9402
:10539000ED1A6EE173E0CE0107960E94AF1A4AE063
:1053A00060911B05CE0101960E946C1BBE016F5FD0
:1053B0007F4FCE0107960E94BD1ACE0101960E9432
:1053C0000D1B65E273E0CE0107960E94AF1A4AE01A
:1053D00060911C05CE0101960E946C1BBE016F5F9F
:1053E0007F4FCE0107960E94BD1ACE0101960E9402
:1053F0000D1B6DE273E0CE0107960E94AF1A4AE0E2
:1054000060911D05CE0101960E946C1BBE016F5F6D
:105410007F4FCE0107960E94BD1ACE0101960E94D1
:105420000D1B64E373E0CE0107960E94AF1A4AE0B9
:1054300060911E05CE0101960E946C1BBE016F5F3C
:105440007F4FCE0107960E94BD1ACE0101960E94A1
:105450000D1BCE0107960E944E19BE01695F7F4F5A
:10546000CE0101960E94D01FCE0101960E945B12D0
:10547000CE0101960E940D1B6CEE72E0CE010796E4
:105480000E94ED1A6CE373E0CE0107960E94AF1AFA
:105490004AE060911F05CE0101960E946C1BBE017F
:1054A0006F5F7F4FCE0107960E94BD1ACE01019615
:1054B0000E940D1B63E473E0CE0107960E94AF1AB1
:1054C0004AE060912005CE0101960E946C1BBE014E
:1054D0006F5F7F4FCE0107960E94BD1ACE010196E5
:1054E0000E940D1BCE0107960E944E19BE01695FF6
:1054F0007F4FCE0101960E94D01FCE0101960E94DF
:105500005B12CE0101960E940D1B0E94D60B609388
:105510004B0770934C0780934D0790934E07CE0135
:1055200007960E940D1B0E946F093ECCE2E5F6E053
:105530001382128248EE53E060E070E044835583AA
:10554000668377838FE792E09183808325E331E060
:105550003587248724E331E03787268720E331E04D
:10556000318B208B21E331E0338B228B22E331E03E
:10557000358B248B26E331E0378B268B118E128EF0
:10558000138E148EA5EBB5E013961C921E92129703
:1055900014964D935D936D937C93179711969C93FE
:1055A0008E9385EC90E01D969C938E931C9784ECD3
:1055B00090E01F969C938E931E9780EC90E05196FE
:1055C0009C938E93509781EC90E053969C938E938E
:1055D000529782EC90E055969C938E93549786EC6C
:1055E00090E057969C938E93569759961C92599794
:1055F0005A961C925A975B961C925B975C961C92EB
:10560000AFEEB6E01C921696FC93EE9315971796A4
:105610001C92179718961C9218971A96FC93EE9363
:105620001997EAEFF6E0138212824483558366836A
:1056300077838FE892E091838083ADEBB7E088E1D8
:1056400015968C93159786E116968C931697EAEF2C
:10565000F4E0E4911796EC931797E4EBF4E0E4910F
:105660001896EC93189740E85EE360E070E01D96B2
:105670004D935D936D937C935097ABEAB7E09AE1BD
:1056800015969C93159716968C931697ECEFF4E06D
:10569000E4911796EC931797E6EBF4E0E4911896F3
:1056A000EC9318971D964D935D936D937C93509753
:1056B000A9E9B7E09BE115969C93159716968C93F4
:1056C0001697EDEFF4E0E4911796EC931797E7EB5C
:1056D000F4E0E4911896EC9318971D964D935D9322
:1056E0006D937C935097A7E8B7E09CE115969C9347
:1056F000159716968C931697EEEFF4E0E4911796B3
:10570000EC931797E8EBF4E0E4911896EC93189774
:105710001D964D935D936D937C935097E2E8F7E06F
:1057200088E480831482138288E081831282EDE70B
:10573000F7E01482138299E4908381831282E8E770
:10574000F7E0148213829AE4908381831282E3E764
:10575000F7E0148213829BE4908381831282E7E650
:10576000F7E0138212824FEA52E0518340839FE3B5
:10577000948324E1208794E0918712868387EBE568
:10578000F7E0138212825183408337E2348320870B
:105790009187128683870E94D60B60935707709378
:1057A00058078093590790935A070E94D60B60932D
:1057B00053077093540780935507909356070E94A0
:1057C000D60B60934F0770935007809351079093C7
:1057D00052070E94D60B60934B0770934C0780933F
:1057E0004D0790934E07E5E4F7E08AED91E1918350
:1057F000808382EE91E19383828315821482AFE3EA
:10580000B7E081ED91E111969C938E938FE291E147
:1058100013969C938E93129715961C921E92149732
:10582000A9E3B7E088EC91E111969C938E938CEC00
:1058300090E113969C938E93129715961C921E924C
:105840001497A3E3B7E08FEB91E111969C938E93AD
:1058500089E690E113969C938E93129715961C926D
:105860001E921497ADE2B7E086EB91E111969C93FE
:105870008E9380E390E113969C938E9312971596E6
:105880001C921E921497A7E2B7E08DEA91E111965F
:105890009C938E938DEC9FE013969C938E9312971E
:1058A00015961C921E921497A1E2B7E084EA91E14A
:1058B00011969C938E938AE69FE013969C938E9309
:1058C000129715961C921E921497ABE1B7E08BE9E4
:1058D00091E111969C938E9387E09FE013969C93A1
:1058E0008E93129715961C921E921497A5E1B7E01D
:1058F00082E991E111969C938E938EEC9EE0139633
:105900009C938E93129715961C921E921497AFE05B
:10591000B7E011961C921E9287E89EE013969C9326
:105920008E93129715961C921E921497A6E0B7E0DC
:1059300081E08C931496FC93EE9313971296FC934C
:10594000EE93119715961D921D921D921C92189719
:105950000895EF920F931F93CF93DF93E80147FDD4
:1059600002C034E001C034E1E42F440FFF0BF7FF25
:1059700003C0F195E195F109E32E022F2E2FAE0120
:105980004ED0CE01DF91CF911F910F91EF900895EE
:10599000FB01DC0105900D920020E1F70895FC0168
:1059A00005900020E9F7809590958E0F9F1F089530
:1059B0004532510518F4423008F004C0FB01108252
:1059C000CB010895BB274A3031F4992322F4BDE27C
:1059D000909581959F4F0BC04532510518F4423088
:1059E00008F004C0FB011082CB010895BB27FB0126
:1059F0005527AA27880F991FAA1FA41710F0A41BC8
:105A000083955051B9F7A05DAA3308F0A95DA19321
:105A1000009779F7B111B1931192CB0165C24F9202
:105A20005F926F927F929F92AF92BF92CF92DF92DE
:105A3000EF92FF920F931F93CF93DF93CDB7DEB713
:105A400029970FB6F894DEBF0FBECDBF6A01122FA3
:105A5000B02E2BE3201720F0FF24F394F00E02C0A9
:105A6000BCE3FB2E0F2D27E0AE014F5F5F4F64D1EB
:105A7000AC018981982F9970913031F0E1FC06C01A
:105A8000E0FE06C090E205C09DE203C09BE201C0BB
:105A900090E0EE2DE07183FF3CC0911102C083E0E5
:105AA00001C084E0811718F4212F281B01C020E0D9
:105AB000E1110BC0F601822F30E2882319F03193F7
:105AC0008150FBCFC20ED11C20E0992329F0D601D2
:105AD0009C93F60131966F01C6010396E2FE0AC05F
